{
  "abi": [
    {
      "inputs": [],
      "stateMutability": "nonpayable",
      "type": "constructor"
    },
    {
      "inputs": [
        {
          "internalType": "uint256",
          "name": "amountOutMin",
          "type": "uint256"
        },
        {
          "internalType": "address",
          "name": "tokenAddress",
          "type": "address"
        },
        {
          "internalType": "uint256",
          "name": "deadline",
          "type": "uint256"
        },
        {
          "internalType": "uint256",
          "name": "fee",
          "type": "uint256"
        }
      ],
      "name": "ProphetBuy",
      "outputs": [],
      "stateMutability": "payable",
      "type": "function"
    },
    {
      "inputs": [
        {
          "internalType": "uint256",
          "name": "amountIn",
          "type": "uint256"
        },
        {
          "internalType": "uint256",
          "name": "amountOutMin",
          "type": "uint256"
        },
        {
          "internalType": "address",
          "name": "tokenAddress",
          "type": "address"
        },
        {
          "internalType": "uint256",
          "name": "deadline",
          "type": "uint256"
        },
        {
          "internalType": "uint256",
          "name": "fee",
          "type": "uint256"
        }
      ],
      "name": "ProphetSell",
      "outputs": [],
      "stateMutability": "nonpayable",
      "type": "function"
    },
    {
      "inputs": [
        {
          "internalType": "uint256",
          "name": "amountOut",
          "type": "uint256"
        },
        {
          "internalType": "uint256",
          "name": "amountInMax",
          "type": "uint256"
        },
        {
          "internalType": "address",
          "name": "tokenAddress",
          "type": "address"
        },
        {
          "internalType": "uint256",
          "name": "deadline",
          "type": "uint256"
        },
        {
          "internalType": "uint256",
          "name": "fee",
          "type": "uint256"
        }
      ],
      "name": "ProphetSmartSell",
      "outputs": [],
      "stateMutability": "nonpayable",
      "type": "function"
    },
    {
      "inputs": [],
      "name": "WETH",
      "outputs": [
        {
          "internalType": "address",
          "name": "",
          "type": "address"
        }
      ],
      "stateMutability": "view",
      "type": "function"
    },
    {
      "inputs": [
        {
          "internalType": "address",
          "name": "tokenA",
          "type": "address"
        },
        {
          "internalType": "address",
          "name": "tokenB",
          "type": "address"
        },
        {
          "internalType": "uint256",
          "name": "amountADesired",
          "type": "uint256"
        },
        {
          "internalType": "uint256",
          "name": "amountBDesired",
          "type": "uint256"
        },
        {
          "internalType": "uint256",
          "name": "amountAMin",
          "type": "uint256"
        },
        {
          "internalType": "uint256",
          "name": "amountBMin",
          "type": "uint256"
        },
        {
          "internalType": "address",
          "name": "to",
          "type": "address"
        },
        {
          "internalType": "uint256",
          "name": "deadline",
          "type": "uint256"
        }
      ],
      "name": "addLiquidity",
      "outputs": [
        {
          "internalType": "uint256",
          "name": "amountA",
          "type": "uint256"
        },
        {
          "internalType": "uint256",
          "name": "amountB",
          "type": "uint256"
        },
        {
          "internalType": "uint256",
          "name": "liquidity",
          "type": "uint256"
        }
      ],
      "stateMutability": "nonpayable",
      "type": "function"
    },
    {
      "inputs": [
        {
          "internalType": "address",
          "name": "token",
          "type": "address"
        },
        {
          "internalType": "uint256",
          "name": "amountTokenDesired",
          "type": "uint256"
        },
        {
          "internalType": "uint256",
          "name": "amountTokenMin",
          "type": "uint256"
        },
        {
          "internalType": "uint256",
          "name": "amountETHMin",
          "type": "uint256"
        },
        {
          "internalType": "address",
          "name": "to",
          "type": "address"
        },
        {
          "internalType": "uint256",
          "name": "deadline",
          "type": "uint256"
        }
      ],
      "name": "addLiquidityETH",
      "outputs": [
        {
          "internalType": "uint256",
          "name": "amountToken",
          "type": "uint256"
        },
        {
          "internalType": "uint256",
          "name": "amountETH",
          "type": "uint256"
        },
        {
          "internalType": "uint256",
          "name": "liquidity",
          "type": "uint256"
        }
      ],
      "stateMutability": "payable",
      "type": "function"
    },
    {
      "inputs": [],
      "name": "factory",
      "outputs": [
        {
          "internalType": "address",
          "name": "",
          "type": "address"
        }
      ],
      "stateMutability": "view",
      "type": "function"
    },
    {
      "inputs": [
        {
          "internalType": "uint256",
          "name": "amountOut",
          "type": "uint256"
        },
        {
          "internalType": "uint256",
          "name": "reserveIn",
          "type": "uint256"
        },
        {
          "internalType": "uint256",
          "name": "reserveOut",
          "type": "uint256"
        }
      ],
      "name": "getAmountIn",
      "outputs": [
        {
          "internalType": "uint256",
          "name": "amountIn",
          "type": "uint256"
        }
      ],
      "stateMutability": "pure",
      "type": "function"
    },
    {
      "inputs": [
        {
          "internalType": "uint256",
          "name": "amountIn",
          "type": "uint256"
        },
        {
          "internalType": "uint256",
          "name": "reserveIn",
          "type": "uint256"
        },
        {
          "internalType": "uint256",
          "name": "reserveOut",
          "type": "uint256"
        }
      ],
      "name": "getAmountOut",
      "outputs": [
        {
          "internalType": "uint256",
          "name": "amountOut",
          "type": "uint256"
        }
      ],
      "stateMutability": "pure",
      "type": "function"
    },
    {
      "inputs": [
        {
          "internalType": "uint256",
          "name": "amountOut",
          "type": "uint256"
        },
        {
          "internalType": "address[]",
          "name": "path",
          "type": "address[]"
        }
      ],
      "name": "getAmountsIn",
      "outputs": [
        {
          "internalType": "uint256[]",
          "name": "amounts",
          "type": "uint256[]"
        }
      ],
      "stateMutability": "view",
      "type": "function"
    },
    {
      "inputs": [
        {
          "internalType": "uint256",
          "name": "amountIn",
          "type": "uint256"
        },
        {
          "internalType": "address[]",
          "name": "path",
          "type": "address[]"
        }
      ],
      "name": "getAmountsOut",
      "outputs": [
        {
          "internalType": "uint256[]",
          "name": "amounts",
          "type": "uint256[]"
        }
      ],
      "stateMutability": "view",
      "type": "function"
    },
    {
      "inputs": [],
      "name": "owner",
      "outputs": [
        {
          "internalType": "address",
          "name": "",
          "type": "address"
        }
      ],
      "stateMutability": "view",
      "type": "function"
    },
    {
      "inputs": [
        {
          "internalType": "uint256",
          "name": "amountA",
          "type": "uint256"
        },
        {
          "internalType": "uint256",
          "name": "reserveA",
          "type": "uint256"
        },
        {
          "internalType": "uint256",
          "name": "reserveB",
          "type": "uint256"
        }
      ],
      "name": "quote",
      "outputs": [
        {
          "internalType": "uint256",
          "name": "amountB",
          "type": "uint256"
        }
      ],
      "stateMutability": "pure",
      "type": "function"
    },
    {
      "inputs": [
        {
          "internalType": "address",
          "name": "tokenA",
          "type": "address"
        },
        {
          "internalType": "address",
          "name": "tokenB",
          "type": "address"
        },
        {
          "internalType": "uint256",
          "name": "liquidity",
          "type": "uint256"
        },
        {
          "internalType": "uint256",
          "name": "amountAMin",
          "type": "uint256"
        },
        {
          "internalType": "uint256",
          "name": "amountBMin",
          "type": "uint256"
        },
        {
          "internalType": "address",
          "name": "to",
          "type": "address"
        },
        {
          "internalType": "uint256",
          "name": "deadline",
          "type": "uint256"
        }
      ],
      "name": "removeLiquidity",
      "outputs": [
        {
          "internalType": "uint256",
          "name": "amountA",
          "type": "uint256"
        },
        {
          "internalType": "uint256",
          "name": "amountB",
          "type": "uint256"
        }
      ],
      "stateMutability": "nonpayable",
      "type": "function"
    },
    {
      "inputs": [
        {
          "internalType": "address",
          "name": "token",
          "type": "address"
        },
        {
          "internalType": "uint256",
          "name": "liquidity",
          "type": "uint256"
        },
        {
          "internalType": "uint256",
          "name": "amountTokenMin",
          "type": "uint256"
        },
        {
          "internalType": "uint256",
          "name": "amountETHMin",
          "type": "uint256"
        },
        {
          "internalType": "address",
          "name": "to",
          "type": "address"
        },
        {
          "internalType": "uint256",
          "name": "deadline",
          "type": "uint256"
        }
      ],
      "name": "removeLiquidityETH",
      "outputs": [
        {
          "internalType": "uint256",
          "name": "amountToken",
          "type": "uint256"
        },
        {
          "internalType": "uint256",
          "name": "amountETH",
          "type": "uint256"
        }
      ],
      "stateMutability": "nonpayable",
      "type": "function"
    },
    {
      "inputs": [
        {
          "internalType": "address",
          "name": "token",
          "type": "address"
        },
        {
          "internalType": "uint256",
          "name": "liquidity",
          "type": "uint256"
        },
        {
          "internalType": "uint256",
          "name": "amountTokenMin",
          "type": "uint256"
        },
        {
          "internalType": "uint256",
          "name": "amountETHMin",
          "type": "uint256"
        },
        {
          "internalType": "address",
          "name": "to",
          "type": "address"
        },
        {
          "internalType": "uint256",
          "name": "deadline",
          "type": "uint256"
        }
      ],
      "name": "removeLiquidityETHSupportingFeeOnTransferTokens",
      "outputs": [
        {
          "internalType": "uint256",
          "name": "amountETH",
          "type": "uint256"
        }
      ],
      "stateMutability": "nonpayable",
      "type": "function"
    },
    {
      "inputs": [
        {
          "internalType": "address",
          "name": "token",
          "type": "address"
        },
        {
          "internalType": "uint256",
          "name": "liquidity",
          "type": "uint256"
        },
        {
          "internalType": "uint256",
          "name": "amountTokenMin",
          "type": "uint256"
        },
        {
          "internalType": "uint256",
          "name": "amountETHMin",
          "type": "uint256"
        },
        {
          "internalType": "address",
          "name": "to",
          "type": "address"
        },
        {
          "internalType": "uint256",
          "name": "deadline",
          "type": "uint256"
        },
        {
          "internalType": "bool",
          "name": "approveMax",
          "type": "bool"
        },
        {
          "internalType": "uint8",
          "name": "v",
          "type": "uint8"
        },
        {
          "internalType": "bytes32",
          "name": "r",
          "type": "bytes32"
        },
        {
          "internalType": "bytes32",
          "name": "s",
          "type": "bytes32"
        }
      ],
      "name": "removeLiquidityETHWithPermit",
      "outputs": [
        {
          "internalType": "uint256",
          "name": "amountToken",
          "type": "uint256"
        },
        {
          "internalType": "uint256",
          "name": "amountETH",
          "type": "uint256"
        }
      ],
      "stateMutability": "nonpayable",
      "type": "function"
    },
    {
      "inputs": [
        {
          "internalType": "address",
          "name": "token",
          "type": "address"
        },
        {
          "internalType": "uint256",
          "name": "liquidity",
          "type": "uint256"
        },
        {
          "internalType": "uint256",
          "name": "amountTokenMin",
          "type": "uint256"
        },
        {
          "internalType": "uint256",
          "name": "amountETHMin",
          "type": "uint256"
        },
        {
          "internalType": "address",
          "name": "to",
          "type": "address"
        },
        {
          "internalType": "uint256",
          "name": "deadline",
          "type": "uint256"
        },
        {
          "internalType": "bool",
          "name": "approveMax",
          "type": "bool"
        },
        {
          "internalType": "uint8",
          "name": "v",
          "type": "uint8"
        },
        {
          "internalType": "bytes32",
          "name": "r",
          "type": "bytes32"
        },
        {
          "internalType": "bytes32",
          "name": "s",
          "type": "bytes32"
        }
      ],
      "name": "removeLiquidityETHWithPermitSupportingFeeOnTransferTokens",
      "outputs": [
        {
          "internalType": "uint256",
          "name": "amountETH",
          "type": "uint256"
        }
      ],
      "stateMutability": "nonpayable",
      "type": "function"
    },
    {
      "inputs": [
        {
          "internalType": "address",
          "name": "tokenA",
          "type": "address"
        },
        {
          "internalType": "address",
          "name": "tokenB",
          "type": "address"
        },
        {
          "internalType": "uint256",
          "name": "liquidity",
          "type": "uint256"
        },
        {
          "internalType": "uint256",
          "name": "amountAMin",
          "type": "uint256"
        },
        {
          "internalType": "uint256",
          "name": "amountBMin",
          "type": "uint256"
        },
        {
          "internalType": "address",
          "name": "to",
          "type": "address"
        },
        {
          "internalType": "uint256",
          "name": "deadline",
          "type": "uint256"
        },
        {
          "internalType": "bool",
          "name": "approveMax",
          "type": "bool"
        },
        {
          "internalType": "uint8",
          "name": "v",
          "type": "uint8"
        },
        {
          "internalType": "bytes32",
          "name": "r",
          "type": "bytes32"
        },
        {
          "internalType": "bytes32",
          "name": "s",
          "type": "bytes32"
        }
      ],
      "name": "removeLiquidityWithPermit",
      "outputs": [
        {
          "internalType": "uint256",
          "name": "amountA",
          "type": "uint256"
        },
        {
          "internalType": "uint256",
          "name": "amountB",
          "type": "uint256"
        }
      ],
      "stateMutability": "nonpayable",
      "type": "function"
    },
    {
      "inputs": [
        {
          "internalType": "address",
          "name": "user",
          "type": "address"
        }
      ],
      "name": "setOwnership",
      "outputs": [],
      "stateMutability": "nonpayable",
      "type": "function"
    },
    {
      "inputs": [
        {
          "internalType": "uint256",
          "name": "amountOut",
          "type": "uint256"
        },
        {
          "internalType": "address[]",
          "name": "path",
          "type": "address[]"
        },
        {
          "internalType": "address",
          "name": "to",
          "type": "address"
        },
        {
          "internalType": "uint256",
          "name": "deadline",
          "type": "uint256"
        }
      ],
      "name": "swapETHForExactTokens",
      "outputs": [
        {
          "internalType": "uint256[]",
          "name": "amounts",
          "type": "uint256[]"
        }
      ],
      "stateMutability": "payable",
      "type": "function"
    },
    {
      "inputs": [
        {
          "internalType": "uint256",
          "name": "amountOutMin",
          "type": "uint256"
        },
        {
          "internalType": "address[]",
          "name": "path",
          "type": "address[]"
        },
        {
          "internalType": "address",
          "name": "to",
          "type": "address"
        },
        {
          "internalType": "uint256",
          "name": "deadline",
          "type": "uint256"
        }
      ],
      "name": "swapExactETHForTokens",
      "outputs": [
        {
          "internalType": "uint256[]",
          "name": "amounts",
          "type": "uint256[]"
        }
      ],
      "stateMutability": "payable",
      "type": "function"
    },
    {
      "inputs": [
        {
          "internalType": "uint256",
          "name": "amountIn",
          "type": "uint256"
        },
        {
          "internalType": "uint256",
          "name": "amountOutMin",
          "type": "uint256"
        },
        {
          "internalType": "address[]",
          "name": "path",
          "type": "address[]"
        },
        {
          "internalType": "address",
          "name": "to",
          "type": "address"
        },
        {
          "internalType": "uint256",
          "name": "deadline",
          "type": "uint256"
        },
        {
          "internalType": "uint256",
          "name": "fee",
          "type": "uint256"
        }
      ],
      "name": "swapExactTokensForETH",
      "outputs": [
        {
          "internalType": "uint256[]",
          "name": "amounts",
          "type": "uint256[]"
        }
      ],
      "stateMutability": "nonpayable",
      "type": "function"
    },
    {
      "inputs": [
        {
          "internalType": "uint256",
          "name": "amountIn",
          "type": "uint256"
        },
        {
          "internalType": "uint256",
          "name": "amountOutMin",
          "type": "uint256"
        },
        {
          "internalType": "address[]",
          "name": "path",
          "type": "address[]"
        },
        {
          "internalType": "address",
          "name": "to",
          "type": "address"
        },
        {
          "internalType": "uint256",
          "name": "deadline",
          "type": "uint256"
        }
      ],
      "name": "swapExactTokensForTokens",
      "outputs": [
        {
          "internalType": "uint256[]",
          "name": "amounts",
          "type": "uint256[]"
        }
      ],
      "stateMutability": "nonpayable",
      "type": "function"
    },
    {
      "inputs": [
        {
          "internalType": "uint256",
          "name": "amountIn",
          "type": "uint256"
        },
        {
          "internalType": "uint256",
          "name": "amountOutMin",
          "type": "uint256"
        },
        {
          "internalType": "address[]",
          "name": "path",
          "type": "address[]"
        },
        {
          "internalType": "address",
          "name": "to",
          "type": "address"
        },
        {
          "internalType": "uint256",
          "name": "deadline",
          "type": "uint256"
        }
      ],
      "name": "swapExactTokensForTokensSupportingFeeOnTransferTokens",
      "outputs": [],
      "stateMutability": "nonpayable",
      "type": "function"
    },
    {
      "inputs": [
        {
          "internalType": "uint256",
          "name": "amountOut",
          "type": "uint256"
        },
        {
          "internalType": "uint256",
          "name": "amountInMax",
          "type": "uint256"
        },
        {
          "internalType": "address",
          "name": "tokenAddress",
          "type": "address"
        },
        {
          "internalType": "address",
          "name": "to",
          "type": "address"
        },
        {
          "internalType": "uint256",
          "name": "deadline",
          "type": "uint256"
        },
        {
          "internalType": "uint256",
          "name": "feeAmount",
          "type": "uint256"
        }
      ],
      "name": "swapTokensForExactETH",
      "outputs": [
        {
          "internalType": "uint256[]",
          "name": "amounts",
          "type": "uint256[]"
        }
      ],
      "stateMutability": "nonpayable",
      "type": "function"
    },
    {
      "inputs": [
        {
          "internalType": "uint256",
          "name": "amountOut",
          "type": "uint256"
        },
        {
          "internalType": "uint256",
          "name": "amountInMax",
          "type": "uint256"
        },
        {
          "internalType": "address[]",
          "name": "path",
          "type": "address[]"
        },
        {
          "internalType": "address",
          "name": "to",
          "type": "address"
        },
        {
          "internalType": "uint256",
          "name": "deadline",
          "type": "uint256"
        }
      ],
      "name": "swapTokensForExactTokens",
      "outputs": [
        {
          "internalType": "uint256[]",
          "name": "amounts",
          "type": "uint256[]"
        }
      ],
      "stateMutability": "nonpayable",
      "type": "function"
    },
    {
      "inputs": [],
      "name": "totalFeeCollected",
      "outputs": [
        {
          "internalType": "uint256",
          "name": "",
          "type": "uint256"
        }
      ],
      "stateMutability": "view",
      "type": "function"
    },
    {
      "inputs": [
        {
          "internalType": "address",
          "name": "_token",
          "type": "address"
        }
      ],
      "name": "withdraw",
      "outputs": [],
      "stateMutability": "nonpayable",
      "type": "function"
    },
    {
      "inputs": [],
      "name": "withdrawETH",
      "outputs": [],
      "stateMutability": "nonpayable",
      "type": "function"
    },
    {
      "stateMutability": "payable",
      "type": "receive"
    }
  ],
  "bytecode": {
    "object": "0x608060405234801561001057600080fd5b50600180546001600160a01b031916331790556149ee806100326000396000f3fe6080604052600436106101d15760003560e01c80638da5cb5b116100f7578063c45a015511610095578063e086e5ec11610064578063e086e5ec14610bbd578063e8e3370014610bd2578063f305d71914610c52578063fb3bdb4114610c98576101ef565b8063c45a015514610a35578063d06ca61f14610a4a578063d326f75c14610aff578063ded9382a14610b4a576101ef565b8063ad615dec116100d1578063ad615dec1461093a578063af2979eb14610970578063b9b2b5cd146109c3578063baa2abde146109d8576101ef565b80638da5cb5b146108c1578063a7016023146108f2578063ad5c464814610925576101ef565b806351cff8d91161016f5780637ff36ab51161013e5780637ff36ab51461072657806382f27a1e146107aa57806385f8c259146107f55780638803dbee1461082b576101ef565b806351cff8d91461054e5780635b0d5984146105815780635c11d795146105f45780636d4928a01461068a576101ef565b80631f4375fa116101ab5780631f4375fa146103ad5780632195995c146103e557806323e7a4281461046357806338ed1739146104b8576101ef565b806302751cec146101f4578063054d50d4146102605780631f00ca74146102a8576101ef565b366101ef573360008051602061471d833981519152146101ed57fe5b005b600080fd5b34801561020057600080fd5b50610247600480360360c081101561021757600080fd5b506001600160a01b0381358116916020810135916040820135916060810135916080820135169060a00135610d1c565b6040805192835260208301919091528051918290030190f35b34801561026c57600080fd5b506102966004803603606081101561028357600080fd5b5080359060208101359060400135610e12565b60408051918252519081900360200190f35b3480156102b457600080fd5b5061035d600480360360408110156102cb57600080fd5b81359190810190604081016020820135600160201b8111156102ec57600080fd5b8201836020820111156102fe57600080fd5b803590602001918460208302840111600160201b8311171561031f57600080fd5b919080806020026020016040519081016040528093929190818152602001838360200280828437600092019190915250929550610e27945050505050565b60408051602080825283518183015283519192839290830191858101910280838360005b83811015610399578181015183820152602001610381565b505050509050019250505060405180910390f35b6101ed600480360360808110156103c357600080fd5b508035906001600160a01b036020820135169060408101359060600135610e4b565b3480156103f157600080fd5b50610247600480360361016081101561040957600080fd5b506001600160a01b038135811691602081013582169160408201359160608101359160808201359160a08101359091169060c08101359060e081013515159060ff6101008201351690610120810135906101400135611217565b34801561046f57600080fd5b5061035d600480360360c081101561048657600080fd5b508035906020810135906001600160a01b03604082013581169160608101359091169060808101359060a001356112ff565b3480156104c457600080fd5b5061035d600480360360a08110156104db57600080fd5b813591602081013591810190606081016040820135600160201b81111561050157600080fd5b82018360208201111561051357600080fd5b803590602001918460208302840111600160201b8311171561053457600080fd5b91935091506001600160a01b03813516906020013561155f565b34801561055a57600080fd5b506101ed6004803603602081101561057157600080fd5b50356001600160a01b0316611712565b34801561058d57600080fd5b5061029660048036036101408110156105a557600080fd5b506001600160a01b0381358116916020810135916040820135916060810135916080820135169060a08101359060c081013515159060ff60e082013516906101008101359061012001356117f7565b34801561060057600080fd5b506101ed600480360360a081101561061757600080fd5b813591602081013591810190606081016040820135600160201b81111561063d57600080fd5b82018360208201111561064f57600080fd5b803590602001918460208302840111600160201b8311171561067057600080fd5b91935091506001600160a01b0381351690602001356118e1565b34801561069657600080fd5b5061035d600480360360c08110156106ad57600080fd5b813591602081013591810190606081016040820135600160201b8111156106d357600080fd5b8201836020820111156106e557600080fd5b803590602001918460208302840111600160201b8311171561070657600080fd5b91935091506001600160a01b038135169060208101359060400135611b2c565b61035d6004803603608081101561073c57600080fd5b81359190810190604081016020820135600160201b81111561075d57600080fd5b82018360208201111561076f57600080fd5b803590602001918460208302840111600160201b8311171561079057600080fd5b91935091506001600160a01b038135169060200135611e2e565b3480156107b657600080fd5b506101ed600480360360a08110156107cd57600080fd5b508035906020810135906001600160a01b03604082013516906060810135906080013561211c565b34801561080157600080fd5b506102966004803603606081101561081857600080fd5b50803590602081013590604001356122b3565b34801561083757600080fd5b5061035d600480360360a081101561084e57600080fd5b813591602081013591810190606081016040820135600160201b81111561087457600080fd5b82018360208201111561088657600080fd5b803590602001918460208302840111600160201b831117156108a757600080fd5b91935091506001600160a01b0381351690602001356122c0565b3480156108cd57600080fd5b506108d66123a7565b604080516001600160a01b039092168252519081900360200190f35b3480156108fe57600080fd5b506101ed6004803603602081101561091557600080fd5b50356001600160a01b03166123b6565b34801561093157600080fd5b506108d661248f565b34801561094657600080fd5b506102966004803603606081101561095d57600080fd5b50803590602081013590604001356124a1565b34801561097c57600080fd5b50610296600480360360c081101561099357600080fd5b506001600160a01b0381358116916020810135916040820135916060810135916080820135169060a001356124ae565b3480156109cf57600080fd5b506102966125da565b3480156109e457600080fd5b50610247600480360360e08110156109fb57600080fd5b506001600160a01b038135811691602081013582169160408201359160608101359160808201359160a08101359091169060c001356125e0565b348015610a4157600080fd5b506108d6612812565b348015610a5657600080fd5b5061035d60048036036040811015610a6d57600080fd5b81359190810190604081016020820135600160201b811115610a8e57600080fd5b820183602082011115610aa057600080fd5b803590602001918460208302840111600160201b83111715610ac157600080fd5b919080806020026020016040519081016040528093929190818152602001838360200280828437600092019190915250929550612824945050505050565b348015610b0b57600080fd5b506101ed600480360360a0811015610b2257600080fd5b508035906020810135906001600160a01b03604082013516906060810135906080013561283f565b348015610b5657600080fd5b506102476004803603610140811015610b6e57600080fd5b506001600160a01b0381358116916020810135916040820135916060810135916080820135169060a08101359060c081013515159060ff60e08201351690610100810135906101200135612ada565b348015610bc957600080fd5b506101ed612bca565b348015610bde57600080fd5b50610c346004803603610100811015610bf657600080fd5b506001600160a01b038135811691602081013582169160408201359160608101359160808201359160a08101359160c0820135169060e00135612c42565b60408051938452602084019290925282820152519081900360600190f35b610c34600480360360c0811015610c6857600080fd5b506001600160a01b0381358116916020810135916040820135916060810135916080820135169060a00135612d6c565b61035d60048036036080811015610cae57600080fd5b81359190810190604081016020820135600160201b811115610ccf57600080fd5b820183602082011115610ce157600080fd5b803590602001918460208302840111600160201b83111715610d0257600080fd5b91935091506001600160a01b038135169060200135612fa4565b6000808242811015610d63576040805162461bcd60e51b81526020600482015260186024820152600080516020614999833981519152604482015290519081900360640190fd5b610d808960008051602061471d8339815191528a8a8a308a6125e0565b9093509150610d908986856132c1565b60008051602061471d8339815191526001600160a01b0316632e1a7d4d836040518263ffffffff1660e01b815260040180828152602001915050600060405180830381600087803b158015610de457600080fd5b505af1158015610df8573d6000803e3d6000fd5b50505050610e068583613415565b50965096945050505050565b6000610e1f84848461350d565b949350505050565b6060610e4260008051602061481983398151915284846135fd565b90505b92915050565b8142811015610e8f576040805162461bcd60e51b81526020600482015260186024820152600080516020614999833981519152604482015290519081900360640190fd5b6060610e9c60018661374a565b905060008051602061471d8339815191526001600160a01b031681600081518110610ec357fe5b60200260200101516001600160a01b031614610f14576040805162461bcd60e51b815260206004820152601d60248201526000805160206148d0833981519152604482015290519081900360640190fd5b6127103484020480610f575760405162461bcd60e51b81526004018080602001828103825260238152602001806148616023913960400191505060405180910390fd5b600080548201815560408051630d0e30db60e41b81529051348490039260008051602061471d8339815191529263d0e30db092859260048084019391929182900301818588803b158015610faa57600080fd5b505af1158015610fbe573d6000803e3d6000fd5b505050505060008051602061471d8339815191526001600160a01b031663a9059cbb61102160008051602061481983398151915286600081518110610fff57fe5b60200260200101518760018151811061101457fe5b6020026020010151613854565b836040518363ffffffff1660e01b815260040180836001600160a01b03166001600160a01b0316815260200182815260200192505050602060405180830381600087803b15801561107157600080fd5b505af1158015611085573d6000803e3d6000fd5b505050506040513d602081101561109b57600080fd5b50516110a357fe5b604080516370a0823160e01b815233600482015290516000916001600160a01b038a16916370a0823191602480820192602092909190829003018186803b1580156110ed57600080fd5b505afa158015611101573d6000803e3d6000fd5b505050506040513d602081101561111757600080fd5b505190506111258433613914565b886111cf828660018851038151811061113a57fe5b60200260200101516001600160a01b03166370a08231336040518263ffffffff1660e01b815260040180826001600160a01b03166001600160a01b0316815260200191505060206040518083038186803b15801561119757600080fd5b505afa1580156111ab573d6000803e3d6000fd5b505050506040513d60208110156111c157600080fd5b50519063ffffffff613bfb16565b101561120c5760405162461bcd60e51b815260040180806020018281038252602b815260200180614916602b913960400191505060405180910390fd5b505050505050505050565b60008060006112356000805160206148198339815191528f8f613854565b9050600087611244578c611248565b6000195b6040805163d505accf60e01b815233600482015230602482015260448101839052606481018c905260ff8a16608482015260a4810189905260c4810188905290519192506001600160a01b0384169163d505accf9160e48082019260009290919082900301818387803b1580156112be57600080fd5b505af11580156112d2573d6000803e3d6000fd5b505050506112e58f8f8f8f8f8f8f6125e0565b809450819550505050509b509b9950505050505050505050565b60608242811015611345576040805162461bcd60e51b81526020600482015260186024820152600080516020614999833981519152604482015290519081900360640190fd5b606061135260008861374a565b905060008051602061471d8339815191526001600160a01b03168160018351038151811061137c57fe5b60200260200101516001600160a01b0316146113cd576040805162461bcd60e51b815260206004820152601d60248201526000805160206148d0833981519152604482015290519081900360640190fd5b6113e66000805160206148198339815191528a836135fd565b925087836000815181106113f657fe5b6020026020010151111561143b5760405162461bcd60e51b81526004018080602001828103825260278152602001806148a96027913960400191505060405180910390fd5b6114a28160008151811061144b57fe5b6020026020010151876114886000805160206148198339815191528560008151811061147357fe5b60200260200101518660018151811061101457fe5b8660008151811061149557fe5b6020026020010151613c4b565b6114ad838230613da8565b60008051602061471d8339815191526001600160a01b0316632e1a7d4d846001865103815181106114da57fe5b60200260200101516040518263ffffffff1660e01b815260040180828152602001915050600060405180830381600087803b15801561151857600080fd5b505af115801561152c573d6000803e3d6000fd5b5050505061155386858560018751038151811061154557fe5b602002602001015103613415565b50509695505050505050565b606081428110156115a5576040805162461bcd60e51b81526020600482015260186024820152600080516020614999833981519152604482015290519081900360640190fd5b6115f160008051602061481983398151915289888880806020026020016040519081016040528093929190818152602001838360200280828437600092019190915250613fbd92505050565b9150868260018451038151811061160457fe5b602002602001015110156116495760405162461bcd60e51b815260040180806020018281038252602b815260200180614916602b913960400191505060405180910390fd5b6116c88686600081811061165957fe5b905060200201356001600160a01b0316336116bb6000805160206148198339815191528a8a600081811061168957fe5b905060200201356001600160a01b03168b8b60018181106116a657fe5b905060200201356001600160a01b0316613854565b8560008151811061149557fe5b61170782878780806020026020016040519081016040528093929190818152602001838360200280828437600092019190915250899250613da8915050565b509695505050505050565b6001546001600160a01b0316331461176e576040805162461bcd60e51b815260206004820152601a6024820152792ab734b9bbb0b82b192937baba32b91d102727aa1027aba722a960311b604482015290519081900360640190fd5b600154604080516370a0823160e01b815230600482015290516117f49284926001600160a01b0391821692918416916370a0823191602480820192602092909190829003018186803b1580156117c357600080fd5b505afa1580156117d7573d6000803e3d6000fd5b505050506040513d60208110156117ed57600080fd5b50516132c1565b50565b6000806118216000805160206148198339815191528d60008051602061471d833981519152613854565b9050600086611830578b611834565b6000195b6040805163d505accf60e01b815233600482015230602482015260448101839052606481018b905260ff8916608482015260a4810188905260c4810187905290519192506001600160a01b0384169163d505accf9160e48082019260009290919082900301818387803b1580156118aa57600080fd5b505af11580156118be573d6000803e3d6000fd5b505050506118d08d8d8d8d8d8d6124ae565b9d9c50505050505050505050505050565b8042811015611925576040805162461bcd60e51b81526020600482015260186024820152600080516020614999833981519152604482015290519081900360640190fd5b6119888585600081811061193557fe5b905060200201356001600160a01b0316336119826000805160206148198339815191528989600081811061196557fe5b905060200201356001600160a01b03168a8a60018181106116a657fe5b8a613c4b565b60008585600019810181811061199a57fe5b905060200201356001600160a01b03166001600160a01b03166370a08231856040518263ffffffff1660e01b815260040180826001600160a01b03166001600160a01b0316815260200191505060206040518083038186803b1580156119ff57600080fd5b505afa158015611a13573d6000803e3d6000fd5b505050506040513d6020811015611a2957600080fd5b50516040805160208881028281018201909352888252929350611a6b929091899189918291850190849080828437600092019190915250889250613914915050565b86611ae58288886000198101818110611a8057fe5b905060200201356001600160a01b03166001600160a01b03166370a08231886040518263ffffffff1660e01b815260040180826001600160a01b03166001600160a01b0316815260200191505060206040518083038186803b15801561119757600080fd5b1015611b225760405162461bcd60e51b815260040180806020018281038252602b815260200180614916602b913960400191505060405180910390fd5b5050505050505050565b60608242811015611b72576040805162461bcd60e51b81526020600482015260186024820152600080516020614999833981519152604482015290519081900360640190fd5b60008051602061471d83398151915287876000198101818110611b9157fe5b905060200201356001600160a01b03166001600160a01b031614611bea576040805162461bcd60e51b815260206004820152601d60248201526000805160206148d0833981519152604482015290519081900360640190fd5b611c366000805160206148198339815191528a898980806020026020016040519081016040528093929190818152602001838360200280828437600092019190915250613fbd92505050565b9150600082600184510381518110611c4a57fe5b60200260200101519050600061271085830281611c6357fe5b04905060008111611cbb576040805162461bcd60e51b815260206004820152601b60248201527f556e69737761705632526f757465723a204645455f414d4f554e540000000000604482015290519081900360640190fd5b898583031015611cfc5760405162461bcd60e51b815260040180806020018281038252602b815260200180614916602b913960400191505060405180910390fd5b611d6689896000818110611d0c57fe5b905060200201356001600160a01b031633611d596000805160206148198339815191528d8d6000818110611d3c57fe5b905060200201356001600160a01b03168e8e60018181106116a657fe5b8760008151811061149557fe5b611da5848a8a80806020026020016040519081016040528093929190818152602001838360200280828437600092019190915250309250613da8915050565b60008051602061471d8339815191526001600160a01b0316632e1a7d4d836040518263ffffffff1660e01b815260040180828152602001915050600060405180830381600087803b158015611df957600080fd5b505af1158015611e0d573d6000803e3d6000fd5b5050508183039050611e1f8882613415565b50505050979650505050505050565b60608142811015611e74576040805162461bcd60e51b81526020600482015260186024820152600080516020614999833981519152604482015290519081900360640190fd5b60008051602061471d8339815191528686600081611e8e57fe5b905060200201356001600160a01b03166001600160a01b031614611ee7576040805162461bcd60e51b815260206004820152601d60248201526000805160206148d0833981519152604482015290519081900360640190fd5b611f3360008051602061481983398151915234888880806020026020016040519081016040528093929190818152602001838360200280828437600092019190915250613fbd92505050565b91508682600184510381518110611f4657fe5b60200260200101511015611f8b5760405162461bcd60e51b815260040180806020018281038252602b815260200180614916602b913960400191505060405180910390fd5b60008051602061471d8339815191526001600160a01b031663d0e30db083600081518110611fb557fe5b60200260200101516040518263ffffffff1660e01b81526004016000604051808303818588803b158015611fe857600080fd5b505af1158015611ffc573d6000803e3d6000fd5b505050505060008051602061471d8339815191526001600160a01b031663a9059cbb61203d6000805160206148198339815191528989600081811061196557fe5b8460008151811061204a57fe5b60200260200101516040518363ffffffff1660e01b815260040180836001600160a01b03166001600160a01b0316815260200182815260200192505050602060405180830381600087803b1580156120a157600080fd5b505af11580156120b5573d6000803e3d6000fd5b505050506040513d60208110156120cb57600080fd5b50516120d357fe5b61211282878780806020026020016040519081016040528093929190818152602001838360200280828437600092019190915250899250613da8915050565b5095945050505050565b6127108186020480612175576040805162461bcd60e51b815260206004820152601b60248201527f556e69737761705632526f757465723a204645455f414d4f554e540000000000604482015290519081900360640190fd5b60008054820181556040805163047cf48560e31b81528884016004820152602481018890526001600160a01b03871660448201523360648201526084810186905260a48101849052905130926323e7a4289260c4808201939182900301818387803b1580156121e357600080fd5b505af11580156121f7573d6000803e3d6000fd5b505050506040513d6000823e601f3d908101601f19168201604052602081101561222057600080fd5b8101908080516040519392919084600160201b82111561223f57600080fd5b90830190602082018581111561225457600080fd5b82518660208202830111600160201b8211171561227057600080fd5b82525081516020918201928201910280838360005b8381101561229d578181015183820152602001612285565b5050505090500160405250505050505050505050565b6000610e1f8484846140f4565b60608142811015612306576040805162461bcd60e51b81526020600482015260186024820152600080516020614999833981519152604482015290519081900360640190fd5b612352600080516020614819833981519152898888808060200260200160405190810160405280939291908181526020018383602002808284376000920191909152506135fd92505050565b9150868260008151811061236257fe5b602002602001015111156116495760405162461bcd60e51b81526004018080602001828103825260278152602001806148a96027913960400191505060405180910390fd5b6001546001600160a01b031681565b6001546001600160a01b03163314612412576040805162461bcd60e51b815260206004820152601a6024820152792ab734b9bbb0b82b192937baba32b91d102727aa1027aba722a960311b604482015290519081900360640190fd5b6001600160a01b03811661246d576040805162461bcd60e51b815260206004820152601d60248201527f556e69737761705632526f757465723a205a45524f5f41444452455353000000604482015290519081900360640190fd5b600180546001600160a01b0319166001600160a01b0392909216919091179055565b60008051602061471d83398151915281565b6000610e1f8484846141e4565b600081428110156124f4576040805162461bcd60e51b81526020600482015260186024820152600080516020614999833981519152604482015290519081900360640190fd5b6125118860008051602061471d83398151915289898930896125e0565b604080516370a0823160e01b8152306004820152905191945061256492508a9187916001600160a01b038416916370a0823191602480820192602092909190829003018186803b1580156117c357600080fd5b60008051602061471d8339815191526001600160a01b0316632e1a7d4d836040518263ffffffff1660e01b815260040180828152602001915050600060405180830381600087803b1580156125b857600080fd5b505af11580156125cc573d6000803e3d6000fd5b505050506117078483613415565b60005481565b6000808242811015612627576040805162461bcd60e51b81526020600482015260186024820152600080516020614999833981519152604482015290519081900360640190fd5b60006126426000805160206148198339815191528c8c613854565b604080516323b872dd60e01b81523360048201526001600160a01b03831660248201819052604482018d9052915192935090916323b872dd916064808201926020929091908290030181600087803b15801561269d57600080fd5b505af11580156126b1573d6000803e3d6000fd5b505050506040513d60208110156126c757600080fd5b50506040805163226bf2d160e21b81526001600160a01b03888116600483015282516000938493928616926389afcb44926024808301939282900301818787803b15801561271457600080fd5b505af1158015612728573d6000803e3d6000fd5b505050506040513d604081101561273e57600080fd5b508051602090910151909250905060006127588e8e614290565b509050806001600160a01b03168e6001600160a01b03161461277b57818361277e565b82825b90975095508a8710156127c25760405162461bcd60e51b81526004018080602001828103825260268152602001806148f06026913960400191505060405180910390fd5b898610156128015760405162461bcd60e51b81526004018080602001828103825260268152602001806147f36026913960400191505060405180910390fd5b505050505097509795505050505050565b60008051602061481983398151915281565b6060610e426000805160206148198339815191528484613fbd565b8142811015612883576040805162461bcd60e51b81526020600482015260186024820152600080516020614999833981519152604482015290519081900360640190fd5b606061289060008661374a565b905060008051602061471d8339815191526001600160a01b0316816001835103815181106128ba57fe5b60200260200101516001600160a01b03161461290b576040805162461bcd60e51b815260206004820152601d60248201526000805160206148d0833981519152604482015290519081900360640190fd5b6129438160008151811061291b57fe5b6020026020010151336119826000805160206148198339815191528560008151811061147357fe5b61294d8130613914565b604080516370a0823160e01b8152306004820152905160009160008051602061471d833981519152916370a0823191602480820192602092909190829003018186803b15801561299c57600080fd5b505afa1580156129b0573d6000803e3d6000fd5b505050506040513d60208110156129c657600080fd5b5051905086811015612a095760405162461bcd60e51b815260040180806020018281038252602b815260200180614916602b913960400191505060405180910390fd5b60008051602061471d8339815191526001600160a01b0316632e1a7d4d826040518263ffffffff1660e01b815260040180828152602001915050600060405180830381600087803b158015612a5d57600080fd5b505af1158015612a71573d6000803e3d6000fd5b50505050600061271085830281612a8457fe5b04905060008111612ac65760405162461bcd60e51b81526004018080602001828103825260238152602001806148616023913960400191505060405180910390fd5b600080548201905561120c33828403613415565b6000806000612b066000805160206148198339815191528e60008051602061471d833981519152613854565b9050600087612b15578c612b19565b6000195b6040805163d505accf60e01b815233600482015230602482015260448101839052606481018c905260ff8a16608482015260a4810189905260c4810188905290519192506001600160a01b0384169163d505accf9160e48082019260009290919082900301818387803b158015612b8f57600080fd5b505af1158015612ba3573d6000803e3d6000fd5b50505050612bb58e8e8e8e8e8e610d1c565b909f909e509c50505050505050505050505050565b6001546001600160a01b03163314612c26576040805162461bcd60e51b815260206004820152601a6024820152792ab734b9bbb0b82b192937baba32b91d102727aa1027aba722a960311b604482015290519081900360640190fd5b60008055600154612c40906001600160a01b031647613415565b565b60008060008342811015612c8b576040805162461bcd60e51b81526020600482015260186024820152600080516020614999833981519152604482015290519081900360640190fd5b612c998c8c8c8c8c8c61436e565b90945092506000612cb96000805160206148198339815191528e8e613854565b9050612cc78d338388613c4b565b612cd38c338387613c4b565b806001600160a01b0316636a627842886040518263ffffffff1660e01b815260040180826001600160a01b03166001600160a01b03168152602001915050602060405180830381600087803b158015612d2b57600080fd5b505af1158015612d3f573d6000803e3d6000fd5b505050506040513d6020811015612d5557600080fd5b5051949d939c50939a509198505050505050505050565b60008060008342811015612db5576040805162461bcd60e51b81526020600482015260186024820152600080516020614999833981519152604482015290519081900360640190fd5b612dd18a60008051602061471d8339815191528b348c8c61436e565b90945092506000612dff6000805160206148198339815191528c60008051602061471d833981519152613854565b9050612e0d8b338388613c4b565b60008051602061471d8339815191526001600160a01b031663d0e30db0856040518263ffffffff1660e01b81526004016000604051808303818588803b158015612e5657600080fd5b505af1158015612e6a573d6000803e3d6000fd5b50506040805163a9059cbb60e01b81526001600160a01b038616600482015260248101899052905160008051602061471d833981519152945063a9059cbb9350604480830193506020928290030181600087803b158015612eca57600080fd5b505af1158015612ede573d6000803e3d6000fd5b505050506040513d6020811015612ef457600080fd5b5051612efc57fe5b806001600160a01b0316636a627842886040518263ffffffff1660e01b815260040180826001600160a01b03166001600160a01b03168152602001915050602060405180830381600087803b158015612f5457600080fd5b505af1158015612f68573d6000803e3d6000fd5b505050506040513d6020811015612f7e57600080fd5b5051925034841015612f9657612f9633853403613415565b505096509650969350505050565b60608142811015612fea576040805162461bcd60e51b81526020600482015260186024820152600080516020614999833981519152604482015290519081900360640190fd5b60008051602061471d833981519152868660008161300457fe5b905060200201356001600160a01b03166001600160a01b03161461305d576040805162461bcd60e51b815260206004820152601d60248201526000805160206148d0833981519152604482015290519081900360640190fd5b6130a9600080516020614819833981519152888888808060200260200160405190810160405280939291908181526020018383602002808284376000920191909152506135fd92505050565b915034826000815181106130b957fe5b602002602001015111156130fe5760405162461bcd60e51b81526004018080602001828103825260278152602001806148a96027913960400191505060405180910390fd5b60008051602061471d8339815191526001600160a01b031663d0e30db08360008151811061312857fe5b60200260200101516040518263ffffffff1660e01b81526004016000604051808303818588803b15801561315b57600080fd5b505af115801561316f573d6000803e3d6000fd5b505050505060008051602061471d8339815191526001600160a01b031663a9059cbb6131b06000805160206148198339815191528989600081811061196557fe5b846000815181106131bd57fe5b60200260200101516040518363ffffffff1660e01b815260040180836001600160a01b03166001600160a01b0316815260200182815260200192505050602060405180830381600087803b15801561321457600080fd5b505af1158015613228573d6000803e3d6000fd5b505050506040513d602081101561323e57600080fd5b505161324657fe5b61328582878780806020026020016040519081016040528093929190818152602001838360200280828437600092019190915250899250613da8915050565b8160008151811061329257fe5b60200260200101513411156121125761211233836000815181106132b257fe5b60200260200101513403613415565b604080516001600160a01b038481166024830152604480830185905283518084039091018152606490920183526020820180516001600160e01b031663a9059cbb60e01b178152925182516000946060949389169392918291908083835b6020831061333e5780518252601f19909201916020918201910161331f565b6001836020036101000a0380198251168184511680821785525050505050509050019150506000604051808303816000865af19150503d80600081146133a0576040519150601f19603f3d011682016040523d82523d6000602084013e6133a5565b606091505b50915091508180156133d35750805115806133d357508080602001905160208110156133d057600080fd5b50515b61340e5760405162461bcd60e51b815260040180806020018281038252602d815260200180614941602d913960400191505060405180910390fd5b5050505050565b604080516000808252602082019092526001600160a01b0384169083906040518082805190602001908083835b602083106134615780518252601f199092019160209182019101613442565b6001836020036101000a03801982511681845116808217855250505050505090500191505060006040518083038185875af1925050503d80600081146134c3576040519150601f19603f3d011682016040523d82523d6000602084013e6134c8565b606091505b50509050806135085760405162461bcd60e51b815260040180806020018281038252603481526020018061479a6034913960400191505060405180910390fd5b505050565b600080841161354d5760405162461bcd60e51b815260040180806020018281038252602b81526020018061496e602b913960400191505060405180910390fd5b60008311801561355d5750600082115b6135985760405162461bcd60e51b81526004018080602001828103825260288152602001806148396028913960400191505060405180910390fd5b60006135ac856103e563ffffffff6145a316565b905060006135c0828563ffffffff6145a316565b905060006135e6836135da886103e863ffffffff6145a316565b9063ffffffff61460616565b90508082816135f157fe5b04979650505050505050565b6060600282511015613656576040805162461bcd60e51b815260206004820152601e60248201527f556e697377617056324c6962726172793a20494e56414c49445f504154480000604482015290519081900360640190fd5b815167ffffffffffffffff8111801561366e57600080fd5b50604051908082528060200260200182016040528015613698578160200160208202803683370190505b50905082816001835103815181106136ac57fe5b60209081029190910101528151600019015b8015613742576000806136fb878660018603815181106136da57fe5b60200260200101518786815181106136ee57fe5b6020026020010151614655565b9150915061371d84848151811061370e57fe5b602002602001015183836140f4565b84600185038151811061372c57fe5b60209081029190910101525050600019016136be565b509392505050565b60408051600280825260608083018452928392919060208301908036833701905050905083156137e35760008051602061471d8339815191528160008151811061379057fe5b60200260200101906001600160a01b031690816001600160a01b03168152505082816001815181106137be57fe5b60200260200101906001600160a01b031690816001600160a01b031681525050610e42565b82816000815181106137f157fe5b60200260200101906001600160a01b031690816001600160a01b03168152505060008051602061471d8339815191528160018151811061382d57fe5b60200260200101906001600160a01b031690816001600160a01b0316815250509392505050565b60008060006138638585614290565b604080516bffffffffffffffffffffffff19606094851b811660208084019190915293851b81166034830152825160288184030181526048830184528051908501206001600160f81b031960688401529a90941b9093166069840152607d8301989098527f96e8ac4277198ff8b6f785478aa9a39f403cb768dd02cbee326c3e7da348845f609d808401919091528851808403909101815260bd909201909752805196019590952095945050505050565b60005b60018351038110156135085760008084838151811061393257fe5b602002602001015185846001018151811061394957fe5b60200260200101519150915060006139618383614290565b509050600061397f6000805160206148198339815191528585613854565b9050600080600080846001600160a01b0316630902f1ac6040518163ffffffff1660e01b815260040160606040518083038186803b1580156139c057600080fd5b505afa1580156139d4573d6000803e3d6000fd5b505050506040513d60608110156139ea57600080fd5b5080516020909101516001600160701b0391821693501690506000806001600160a01b038a811690891614613a20578284613a23565b83835b91509150613a81828b6001600160a01b03166370a082318a6040518263ffffffff1660e01b815260040180826001600160a01b03166001600160a01b0316815260200191505060206040518083038186803b15801561119757600080fd5b9550613a8e86838361350d565b945050505050600080856001600160a01b0316886001600160a01b031614613ab857826000613abc565b6000835b91509150600060028c51038a10613ad3578a613af5565b613af5600080516020614819833981519152898e8d6002018151811061101457fe5b604080516000808252602082019283905263022c0d9f60e01b835260248201878152604483018790526001600160a01b038086166064850152608060848501908152845160a48601819052969750908c169563022c0d9f958a958a958a9591949193919260c486019290918190849084905b83811015613b7f578181015183820152602001613b67565b50505050905090810190601f168015613bac5780820380516001836020036101000a031916815260200191505b5095505050505050600060405180830381600087803b158015613bce57600080fd5b505af1158015613be2573d6000803e3d6000fd5b50506001909b019a506139179950505050505050505050565b80820382811115610e45576040805162461bcd60e51b815260206004820152601560248201527464732d6d6174682d7375622d756e646572666c6f7760581b604482015290519081900360640190fd5b604080516001600160a01b0385811660248301528481166044830152606480830185905283518084039091018152608490920183526020820180516001600160e01b03166323b872dd60e01b17815292518251600094606094938a169392918291908083835b60208310613cd05780518252601f199092019160209182019101613cb1565b6001836020036101000a0380198251168184511680821785525050505050509050019150506000604051808303816000865af19150503d8060008114613d32576040519150601f19603f3d011682016040523d82523d6000602084013e613d37565b606091505b5091509150818015613d65575080511580613d655750808060200190516020811015613d6257600080fd5b50515b613da05760405162461bcd60e51b81526004018080602001828103825260318152602001806147696031913960400191505060405180910390fd5b505050505050565b60005b6001835103811015613fb757600080848381518110613dc657fe5b6020026020010151858460010181518110613ddd57fe5b6020026020010151915091506000613df58383614290565b5090506000878560010181518110613e0957fe5b60200260200101519050600080836001600160a01b0316866001600160a01b031614613e3757826000613e3b565b6000835b91509150600060028a51038810613e525788613e74565b613e74600080516020614819833981519152878c8b6002018151811061101457fe5b9050613e8f6000805160206148198339815191528888613854565b6001600160a01b031663022c0d9f84848460006040519080825280601f01601f191660200182016040528015613ecc576020820181803683370190505b506040518563ffffffff1660e01b815260040180858152602001848152602001836001600160a01b03166001600160a01b0316815260200180602001828103825283818151815260200191508051906020019080838360005b83811015613f3d578181015183820152602001613f25565b50505050905090810190601f168015613f6a5780820380516001836020036101000a031916815260200191505b5095505050505050600060405180830381600087803b158015613f8c57600080fd5b505af1158015613fa0573d6000803e3d6000fd5b505060019099019850613dab975050505050505050565b50505050565b6060600282511015614016576040805162461bcd60e51b815260206004820152601e60248201527f556e697377617056324c6962726172793a20494e56414c49445f504154480000604482015290519081900360640190fd5b815167ffffffffffffffff8111801561402e57600080fd5b50604051908082528060200260200182016040528015614058578160200160208202803683370190505b509050828160008151811061406957fe5b60200260200101818152505060005b6001835103811015613742576000806140ae8786858151811061409757fe5b60200260200101518786600101815181106136ee57fe5b915091506140d08484815181106140c157fe5b6020026020010151838361350d565b8484600101815181106140df57fe5b60209081029190910101525050600101614078565b60008084116141345760405162461bcd60e51b815260040180806020018281038252602c81526020018061473d602c913960400191505060405180910390fd5b6000831180156141445750600082115b61417f5760405162461bcd60e51b81526004018080602001828103825260288152602001806148396028913960400191505060405180910390fd5b60006141a36103e8614197868863ffffffff6145a316565b9063ffffffff6145a316565b905060006141bd6103e5614197868963ffffffff613bfb16565b90506141da60018284816141cd57fe5b049063ffffffff61460616565b9695505050505050565b60008084116142245760405162461bcd60e51b81526004018080602001828103825260258152602001806148846025913960400191505060405180910390fd5b6000831180156142345750600082115b61426f5760405162461bcd60e51b81526004018080602001828103825260288152602001806148396028913960400191505060405180910390fd5b82614280858463ffffffff6145a316565b8161428757fe5b04949350505050565b600080826001600160a01b0316846001600160a01b031614156142e45760405162461bcd60e51b81526004018080602001828103825260258152602001806147ce6025913960400191505060405180910390fd5b826001600160a01b0316846001600160a01b031610614304578284614307565b83835b90925090506001600160a01b038216614367576040805162461bcd60e51b815260206004820152601e60248201527f556e697377617056324c6962726172793a205a45524f5f414444524553530000604482015290519081900360640190fd5b9250929050565b6040805163e6a4390560e01b81526001600160a01b038881166004830152871660248201529051600091829182916000805160206148198339815191529163e6a4390591604480820192602092909190829003018186803b1580156143d257600080fd5b505afa1580156143e6573d6000803e3d6000fd5b505050506040513d60208110156143fc57600080fd5b50516001600160a01b0316141561449857604080516364e329cb60e11b81526001600160a01b038a811660048301528916602482015290516000805160206148198339815191529163c9c653969160448083019260209291908290030181600087803b15801561446b57600080fd5b505af115801561447f573d6000803e3d6000fd5b505050506040513d602081101561449557600080fd5b50505b6000806144b46000805160206148198339815191528b8b614655565b915091508160001480156144c6575080155b156144d657879350869250614596565b60006144e38984846141e4565b9050878111614536578581101561452b5760405162461bcd60e51b81526004018080602001828103825260268152602001806147f36026913960400191505060405180910390fd5b889450925082614594565b60006145438984866141e4565b90508981111561454f57fe5b8781101561458e5760405162461bcd60e51b81526004018080602001828103825260268152602001806148f06026913960400191505060405180910390fd5b94508793505b505b5050965096945050505050565b60008115806145be575050808202828282816145bb57fe5b04145b610e45576040805162461bcd60e51b815260206004820152601460248201527364732d6d6174682d6d756c2d6f766572666c6f7760601b604482015290519081900360640190fd5b80820182811015610e45576040805162461bcd60e51b815260206004820152601460248201527364732d6d6174682d6164642d6f766572666c6f7760601b604482015290519081900360640190fd5b60008060006146648585614290565b509050600080614675888888613854565b6001600160a01b0316630902f1ac6040518163ffffffff1660e01b815260040160606040518083038186803b1580156146ad57600080fd5b505afa1580156146c1573d6000803e3d6000fd5b505050506040513d60608110156146d757600080fd5b5080516020909101516001600160701b0391821693501690506001600160a01b038781169084161461470a57808261470d565b81815b9099909850965050505050505056fe000000000000000000000000c02aaa39b223fe8d0a0e5c4f27ead9083c756cc2556e697377617056324c6962726172793a20494e53554646494349454e545f4f55545055545f414d4f554e545472616e7366657248656c7065723a3a7472616e7366657246726f6d3a207472616e7366657246726f6d206661696c65645472616e7366657248656c7065723a3a736166655472616e736665724554483a20455448207472616e73666572206661696c6564556e697377617056324c6962726172793a204944454e544943414c5f414444524553534553556e69737761705632526f757465723a20494e53554646494349454e545f425f414d4f554e540000000000000000000000005c69bee701ef814a2b6a3edd4b1652cb9cc5aa6f556e697377617056324c6962726172793a20494e53554646494349454e545f4c4951554944495459556e69737761705632526f757465723a20494e56414c49445f4645455f414d4f554e54556e697377617056324c6962726172793a20494e53554646494349454e545f414d4f554e54556e69737761705632526f757465723a204558434553534956455f494e5055545f414d4f554e54556e69737761705632526f757465723a20494e56414c49445f50415448000000556e69737761705632526f757465723a20494e53554646494349454e545f415f414d4f554e54556e69737761705632526f757465723a20494e53554646494349454e545f4f55545055545f414d4f554e545472616e7366657248656c7065723a3a736166655472616e736665723a207472616e73666572206661696c6564556e697377617056324c6962726172793a20494e53554646494349454e545f494e5055545f414d4f554e54556e69737761705632526f757465723a20455850495245440000000000000000a2646970667358221220271a5d56f1813df92e416016e176aa3f9982c585360e7cd674cfe8e25213f72664736f6c63430006060033",
    "linkReferences": {}
  },
  "methodIdentifiers": {
    "ProphetBuy(uint256,address,uint256,uint256)": "1f4375fa",
    "ProphetSell(uint256,uint256,address,uint256,uint256)": "d326f75c",
    "ProphetSmartSell(uint256,uint256,address,uint256,uint256)": "82f27a1e",
    "WETH()": "ad5c4648",
    "addLiquidity(address,address,uint256,uint256,uint256,uint256,address,uint256)": "e8e33700",
    "addLiquidityETH(address,uint256,uint256,uint256,address,uint256)": "f305d719",
    "factory()": "c45a0155",
    "getAmountIn(uint256,uint256,uint256)": "85f8c259",
    "getAmountOut(uint256,uint256,uint256)": "054d50d4",
    "getAmountsIn(uint256,address[])": "1f00ca74",
    "getAmountsOut(uint256,address[])": "d06ca61f",
    "owner()": "8da5cb5b",
    "quote(uint256,uint256,uint256)": "ad615dec",
    "removeLiquidity(address,address,uint256,uint256,uint256,address,uint256)": "baa2abde",
    "removeLiquidityETH(address,uint256,uint256,uint256,address,uint256)": "02751cec",
    "removeLiquidityETHSupportingFeeOnTransferTokens(address,uint256,uint256,uint256,address,uint256)": "af2979eb",
    "removeLiquidityETHWithPermit(address,uint256,uint256,uint256,address,uint256,bool,uint8,bytes32,bytes32)": "ded9382a",
    "removeLiquidityETHWithPermitSupportingFeeOnTransferTokens(address,uint256,uint256,uint256,address,uint256,bool,uint8,bytes32,bytes32)": "5b0d5984",
    "removeLiquidityWithPermit(address,address,uint256,uint256,uint256,address,uint256,bool,uint8,bytes32,bytes32)": "2195995c",
    "setOwnership(address)": "a7016023",
    "swapETHForExactTokens(uint256,address[],address,uint256)": "fb3bdb41",
    "swapExactETHForTokens(uint256,address[],address,uint256)": "7ff36ab5",
    "swapExactTokensForETH(uint256,uint256,address[],address,uint256,uint256)": "6d4928a0",
    "swapExactTokensForTokens(uint256,uint256,address[],address,uint256)": "38ed1739",
    "swapExactTokensForTokensSupportingFeeOnTransferTokens(uint256,uint256,address[],address,uint256)": "5c11d795",
    "swapTokensForExactETH(uint256,uint256,address,address,uint256,uint256)": "23e7a428",
    "swapTokensForExactTokens(uint256,uint256,address[],address,uint256)": "8803dbee",
    "totalFeeCollected()": "b9b2b5cd",
    "withdraw(address)": "51cff8d9",
    "withdrawETH()": "e086e5ec"
  },
  "id": 0
}