{
  "abi": [
    {
      "inputs": [],
      "stateMutability": "nonpayable",
      "type": "constructor"
    },
    {
      "anonymous": false,
      "inputs": [
        {
          "indexed": false,
          "internalType": "uint256",
          "name": "feeAmount",
          "type": "uint256"
        },
        {
          "indexed": true,
          "internalType": "address",
          "name": "user",
          "type": "address"
        }
      ],
      "name": "ProphetFee",
      "type": "event"
    },
    {
      "inputs": [
        {
          "internalType": "uint256",
          "name": "amountOutMin",
          "type": "uint256"
        },
        {
          "internalType": "address",
          "name": "tokenAddress",
          "type": "address"
        },
        {
          "internalType": "uint256",
          "name": "deadline",
          "type": "uint256"
        },
        {
          "internalType": "uint256",
          "name": "fee",
          "type": "uint256"
        }
      ],
      "name": "ProphetBuy",
      "outputs": [],
      "stateMutability": "payable",
      "type": "function"
    },
    {
      "inputs": [
        {
          "internalType": "uint256",
          "name": "amountIn",
          "type": "uint256"
        },
        {
          "internalType": "uint256",
          "name": "amountOutMin",
          "type": "uint256"
        },
        {
          "internalType": "address",
          "name": "tokenAddress",
          "type": "address"
        },
        {
          "internalType": "uint256",
          "name": "deadline",
          "type": "uint256"
        },
        {
          "internalType": "uint256",
          "name": "fee",
          "type": "uint256"
        }
      ],
      "name": "ProphetSell",
      "outputs": [],
      "stateMutability": "nonpayable",
      "type": "function"
    },
    {
      "inputs": [
        {
          "internalType": "uint256",
          "name": "amountOut",
          "type": "uint256"
        },
        {
          "internalType": "uint256",
          "name": "amountInMax",
          "type": "uint256"
        },
        {
          "internalType": "address",
          "name": "tokenAddress",
          "type": "address"
        },
        {
          "internalType": "uint256",
          "name": "deadline",
          "type": "uint256"
        },
        {
          "internalType": "uint256",
          "name": "fee",
          "type": "uint256"
        }
      ],
      "name": "ProphetSmartSell",
      "outputs": [],
      "stateMutability": "nonpayable",
      "type": "function"
    },
    {
      "inputs": [],
      "name": "WETH",
      "outputs": [
        {
          "internalType": "address",
          "name": "",
          "type": "address"
        }
      ],
      "stateMutability": "view",
      "type": "function"
    },
    {
      "inputs": [
        {
          "internalType": "address",
          "name": "tokenA",
          "type": "address"
        },
        {
          "internalType": "address",
          "name": "tokenB",
          "type": "address"
        },
        {
          "internalType": "uint256",
          "name": "amountADesired",
          "type": "uint256"
        },
        {
          "internalType": "uint256",
          "name": "amountBDesired",
          "type": "uint256"
        },
        {
          "internalType": "uint256",
          "name": "amountAMin",
          "type": "uint256"
        },
        {
          "internalType": "uint256",
          "name": "amountBMin",
          "type": "uint256"
        },
        {
          "internalType": "address",
          "name": "to",
          "type": "address"
        },
        {
          "internalType": "uint256",
          "name": "deadline",
          "type": "uint256"
        }
      ],
      "name": "addLiquidity",
      "outputs": [
        {
          "internalType": "uint256",
          "name": "amountA",
          "type": "uint256"
        },
        {
          "internalType": "uint256",
          "name": "amountB",
          "type": "uint256"
        },
        {
          "internalType": "uint256",
          "name": "liquidity",
          "type": "uint256"
        }
      ],
      "stateMutability": "nonpayable",
      "type": "function"
    },
    {
      "inputs": [
        {
          "internalType": "address",
          "name": "token",
          "type": "address"
        },
        {
          "internalType": "uint256",
          "name": "amountTokenDesired",
          "type": "uint256"
        },
        {
          "internalType": "uint256",
          "name": "amountTokenMin",
          "type": "uint256"
        },
        {
          "internalType": "uint256",
          "name": "amountETHMin",
          "type": "uint256"
        },
        {
          "internalType": "address",
          "name": "to",
          "type": "address"
        },
        {
          "internalType": "uint256",
          "name": "deadline",
          "type": "uint256"
        }
      ],
      "name": "addLiquidityETH",
      "outputs": [
        {
          "internalType": "uint256",
          "name": "amountToken",
          "type": "uint256"
        },
        {
          "internalType": "uint256",
          "name": "amountETH",
          "type": "uint256"
        },
        {
          "internalType": "uint256",
          "name": "liquidity",
          "type": "uint256"
        }
      ],
      "stateMutability": "payable",
      "type": "function"
    },
    {
      "inputs": [],
      "name": "factory",
      "outputs": [
        {
          "internalType": "address",
          "name": "",
          "type": "address"
        }
      ],
      "stateMutability": "view",
      "type": "function"
    },
    {
      "inputs": [
        {
          "internalType": "uint256",
          "name": "amountOut",
          "type": "uint256"
        },
        {
          "internalType": "uint256",
          "name": "reserveIn",
          "type": "uint256"
        },
        {
          "internalType": "uint256",
          "name": "reserveOut",
          "type": "uint256"
        }
      ],
      "name": "getAmountIn",
      "outputs": [
        {
          "internalType": "uint256",
          "name": "amountIn",
          "type": "uint256"
        }
      ],
      "stateMutability": "pure",
      "type": "function"
    },
    {
      "inputs": [
        {
          "internalType": "uint256",
          "name": "amountIn",
          "type": "uint256"
        },
        {
          "internalType": "uint256",
          "name": "reserveIn",
          "type": "uint256"
        },
        {
          "internalType": "uint256",
          "name": "reserveOut",
          "type": "uint256"
        }
      ],
      "name": "getAmountOut",
      "outputs": [
        {
          "internalType": "uint256",
          "name": "amountOut",
          "type": "uint256"
        }
      ],
      "stateMutability": "pure",
      "type": "function"
    },
    {
      "inputs": [
        {
          "internalType": "uint256",
          "name": "amountOut",
          "type": "uint256"
        },
        {
          "internalType": "address[]",
          "name": "path",
          "type": "address[]"
        }
      ],
      "name": "getAmountsIn",
      "outputs": [
        {
          "internalType": "uint256[]",
          "name": "amounts",
          "type": "uint256[]"
        }
      ],
      "stateMutability": "view",
      "type": "function"
    },
    {
      "inputs": [
        {
          "internalType": "uint256",
          "name": "amountIn",
          "type": "uint256"
        },
        {
          "internalType": "address[]",
          "name": "path",
          "type": "address[]"
        }
      ],
      "name": "getAmountsOut",
      "outputs": [
        {
          "internalType": "uint256[]",
          "name": "amounts",
          "type": "uint256[]"
        }
      ],
      "stateMutability": "view",
      "type": "function"
    },
    {
      "inputs": [],
      "name": "owner",
      "outputs": [
        {
          "internalType": "address",
          "name": "",
          "type": "address"
        }
      ],
      "stateMutability": "view",
      "type": "function"
    },
    {
      "inputs": [
        {
          "internalType": "uint256",
          "name": "amountA",
          "type": "uint256"
        },
        {
          "internalType": "uint256",
          "name": "reserveA",
          "type": "uint256"
        },
        {
          "internalType": "uint256",
          "name": "reserveB",
          "type": "uint256"
        }
      ],
      "name": "quote",
      "outputs": [
        {
          "internalType": "uint256",
          "name": "amountB",
          "type": "uint256"
        }
      ],
      "stateMutability": "pure",
      "type": "function"
    },
    {
      "inputs": [
        {
          "internalType": "address",
          "name": "tokenA",
          "type": "address"
        },
        {
          "internalType": "address",
          "name": "tokenB",
          "type": "address"
        },
        {
          "internalType": "uint256",
          "name": "liquidity",
          "type": "uint256"
        },
        {
          "internalType": "uint256",
          "name": "amountAMin",
          "type": "uint256"
        },
        {
          "internalType": "uint256",
          "name": "amountBMin",
          "type": "uint256"
        },
        {
          "internalType": "address",
          "name": "to",
          "type": "address"
        },
        {
          "internalType": "uint256",
          "name": "deadline",
          "type": "uint256"
        }
      ],
      "name": "removeLiquidity",
      "outputs": [
        {
          "internalType": "uint256",
          "name": "amountA",
          "type": "uint256"
        },
        {
          "internalType": "uint256",
          "name": "amountB",
          "type": "uint256"
        }
      ],
      "stateMutability": "nonpayable",
      "type": "function"
    },
    {
      "inputs": [
        {
          "internalType": "address",
          "name": "token",
          "type": "address"
        },
        {
          "internalType": "uint256",
          "name": "liquidity",
          "type": "uint256"
        },
        {
          "internalType": "uint256",
          "name": "amountTokenMin",
          "type": "uint256"
        },
        {
          "internalType": "uint256",
          "name": "amountETHMin",
          "type": "uint256"
        },
        {
          "internalType": "address",
          "name": "to",
          "type": "address"
        },
        {
          "internalType": "uint256",
          "name": "deadline",
          "type": "uint256"
        }
      ],
      "name": "removeLiquidityETH",
      "outputs": [
        {
          "internalType": "uint256",
          "name": "amountToken",
          "type": "uint256"
        },
        {
          "internalType": "uint256",
          "name": "amountETH",
          "type": "uint256"
        }
      ],
      "stateMutability": "nonpayable",
      "type": "function"
    },
    {
      "inputs": [
        {
          "internalType": "address",
          "name": "token",
          "type": "address"
        },
        {
          "internalType": "uint256",
          "name": "liquidity",
          "type": "uint256"
        },
        {
          "internalType": "uint256",
          "name": "amountTokenMin",
          "type": "uint256"
        },
        {
          "internalType": "uint256",
          "name": "amountETHMin",
          "type": "uint256"
        },
        {
          "internalType": "address",
          "name": "to",
          "type": "address"
        },
        {
          "internalType": "uint256",
          "name": "deadline",
          "type": "uint256"
        }
      ],
      "name": "removeLiquidityETHSupportingFeeOnTransferTokens",
      "outputs": [
        {
          "internalType": "uint256",
          "name": "amountETH",
          "type": "uint256"
        }
      ],
      "stateMutability": "nonpayable",
      "type": "function"
    },
    {
      "inputs": [
        {
          "internalType": "address",
          "name": "token",
          "type": "address"
        },
        {
          "internalType": "uint256",
          "name": "liquidity",
          "type": "uint256"
        },
        {
          "internalType": "uint256",
          "name": "amountTokenMin",
          "type": "uint256"
        },
        {
          "internalType": "uint256",
          "name": "amountETHMin",
          "type": "uint256"
        },
        {
          "internalType": "address",
          "name": "to",
          "type": "address"
        },
        {
          "internalType": "uint256",
          "name": "deadline",
          "type": "uint256"
        },
        {
          "internalType": "bool",
          "name": "approveMax",
          "type": "bool"
        },
        {
          "internalType": "uint8",
          "name": "v",
          "type": "uint8"
        },
        {
          "internalType": "bytes32",
          "name": "r",
          "type": "bytes32"
        },
        {
          "internalType": "bytes32",
          "name": "s",
          "type": "bytes32"
        }
      ],
      "name": "removeLiquidityETHWithPermit",
      "outputs": [
        {
          "internalType": "uint256",
          "name": "amountToken",
          "type": "uint256"
        },
        {
          "internalType": "uint256",
          "name": "amountETH",
          "type": "uint256"
        }
      ],
      "stateMutability": "nonpayable",
      "type": "function"
    },
    {
      "inputs": [
        {
          "internalType": "address",
          "name": "token",
          "type": "address"
        },
        {
          "internalType": "uint256",
          "name": "liquidity",
          "type": "uint256"
        },
        {
          "internalType": "uint256",
          "name": "amountTokenMin",
          "type": "uint256"
        },
        {
          "internalType": "uint256",
          "name": "amountETHMin",
          "type": "uint256"
        },
        {
          "internalType": "address",
          "name": "to",
          "type": "address"
        },
        {
          "internalType": "uint256",
          "name": "deadline",
          "type": "uint256"
        },
        {
          "internalType": "bool",
          "name": "approveMax",
          "type": "bool"
        },
        {
          "internalType": "uint8",
          "name": "v",
          "type": "uint8"
        },
        {
          "internalType": "bytes32",
          "name": "r",
          "type": "bytes32"
        },
        {
          "internalType": "bytes32",
          "name": "s",
          "type": "bytes32"
        }
      ],
      "name": "removeLiquidityETHWithPermitSupportingFeeOnTransferTokens",
      "outputs": [
        {
          "internalType": "uint256",
          "name": "amountETH",
          "type": "uint256"
        }
      ],
      "stateMutability": "nonpayable",
      "type": "function"
    },
    {
      "inputs": [
        {
          "internalType": "address",
          "name": "tokenA",
          "type": "address"
        },
        {
          "internalType": "address",
          "name": "tokenB",
          "type": "address"
        },
        {
          "internalType": "uint256",
          "name": "liquidity",
          "type": "uint256"
        },
        {
          "internalType": "uint256",
          "name": "amountAMin",
          "type": "uint256"
        },
        {
          "internalType": "uint256",
          "name": "amountBMin",
          "type": "uint256"
        },
        {
          "internalType": "address",
          "name": "to",
          "type": "address"
        },
        {
          "internalType": "uint256",
          "name": "deadline",
          "type": "uint256"
        },
        {
          "internalType": "bool",
          "name": "approveMax",
          "type": "bool"
        },
        {
          "internalType": "uint8",
          "name": "v",
          "type": "uint8"
        },
        {
          "internalType": "bytes32",
          "name": "r",
          "type": "bytes32"
        },
        {
          "internalType": "bytes32",
          "name": "s",
          "type": "bytes32"
        }
      ],
      "name": "removeLiquidityWithPermit",
      "outputs": [
        {
          "internalType": "uint256",
          "name": "amountA",
          "type": "uint256"
        },
        {
          "internalType": "uint256",
          "name": "amountB",
          "type": "uint256"
        }
      ],
      "stateMutability": "nonpayable",
      "type": "function"
    },
    {
      "inputs": [
        {
          "internalType": "address",
          "name": "user",
          "type": "address"
        }
      ],
      "name": "setOwnership",
      "outputs": [],
      "stateMutability": "nonpayable",
      "type": "function"
    },
    {
      "inputs": [
        {
          "internalType": "uint256",
          "name": "amountOut",
          "type": "uint256"
        },
        {
          "internalType": "address[]",
          "name": "path",
          "type": "address[]"
        },
        {
          "internalType": "address",
          "name": "to",
          "type": "address"
        },
        {
          "internalType": "uint256",
          "name": "deadline",
          "type": "uint256"
        }
      ],
      "name": "swapETHForExactTokens",
      "outputs": [
        {
          "internalType": "uint256[]",
          "name": "amounts",
          "type": "uint256[]"
        }
      ],
      "stateMutability": "payable",
      "type": "function"
    },
    {
      "inputs": [
        {
          "internalType": "uint256",
          "name": "amountOutMin",
          "type": "uint256"
        },
        {
          "internalType": "address[]",
          "name": "path",
          "type": "address[]"
        },
        {
          "internalType": "address",
          "name": "to",
          "type": "address"
        },
        {
          "internalType": "uint256",
          "name": "deadline",
          "type": "uint256"
        }
      ],
      "name": "swapExactETHForTokens",
      "outputs": [
        {
          "internalType": "uint256[]",
          "name": "amounts",
          "type": "uint256[]"
        }
      ],
      "stateMutability": "payable",
      "type": "function"
    },
    {
      "inputs": [
        {
          "internalType": "uint256",
          "name": "amountIn",
          "type": "uint256"
        },
        {
          "internalType": "uint256",
          "name": "amountOutMin",
          "type": "uint256"
        },
        {
          "internalType": "address[]",
          "name": "path",
          "type": "address[]"
        },
        {
          "internalType": "address",
          "name": "to",
          "type": "address"
        },
        {
          "internalType": "uint256",
          "name": "deadline",
          "type": "uint256"
        },
        {
          "internalType": "uint256",
          "name": "fee",
          "type": "uint256"
        }
      ],
      "name": "swapExactTokensForETH",
      "outputs": [
        {
          "internalType": "uint256[]",
          "name": "amounts",
          "type": "uint256[]"
        }
      ],
      "stateMutability": "nonpayable",
      "type": "function"
    },
    {
      "inputs": [
        {
          "internalType": "uint256",
          "name": "amountIn",
          "type": "uint256"
        },
        {
          "internalType": "uint256",
          "name": "amountOutMin",
          "type": "uint256"
        },
        {
          "internalType": "address[]",
          "name": "path",
          "type": "address[]"
        },
        {
          "internalType": "address",
          "name": "to",
          "type": "address"
        },
        {
          "internalType": "uint256",
          "name": "deadline",
          "type": "uint256"
        }
      ],
      "name": "swapExactTokensForTokens",
      "outputs": [
        {
          "internalType": "uint256[]",
          "name": "amounts",
          "type": "uint256[]"
        }
      ],
      "stateMutability": "nonpayable",
      "type": "function"
    },
    {
      "inputs": [
        {
          "internalType": "uint256",
          "name": "amountIn",
          "type": "uint256"
        },
        {
          "internalType": "uint256",
          "name": "amountOutMin",
          "type": "uint256"
        },
        {
          "internalType": "address[]",
          "name": "path",
          "type": "address[]"
        },
        {
          "internalType": "address",
          "name": "to",
          "type": "address"
        },
        {
          "internalType": "uint256",
          "name": "deadline",
          "type": "uint256"
        }
      ],
      "name": "swapExactTokensForTokensSupportingFeeOnTransferTokens",
      "outputs": [],
      "stateMutability": "nonpayable",
      "type": "function"
    },
    {
      "inputs": [
        {
          "internalType": "uint256",
          "name": "amountOut",
          "type": "uint256"
        },
        {
          "internalType": "uint256",
          "name": "amountInMax",
          "type": "uint256"
        },
        {
          "internalType": "address",
          "name": "tokenAddress",
          "type": "address"
        },
        {
          "internalType": "address",
          "name": "to",
          "type": "address"
        },
        {
          "internalType": "uint256",
          "name": "deadline",
          "type": "uint256"
        },
        {
          "internalType": "uint256",
          "name": "feeAmount",
          "type": "uint256"
        }
      ],
      "name": "swapTokensForExactETH",
      "outputs": [
        {
          "internalType": "uint256[]",
          "name": "amounts",
          "type": "uint256[]"
        }
      ],
      "stateMutability": "nonpayable",
      "type": "function"
    },
    {
      "inputs": [
        {
          "internalType": "uint256",
          "name": "amountOut",
          "type": "uint256"
        },
        {
          "internalType": "uint256",
          "name": "amountInMax",
          "type": "uint256"
        },
        {
          "internalType": "address[]",
          "name": "path",
          "type": "address[]"
        },
        {
          "internalType": "address",
          "name": "to",
          "type": "address"
        },
        {
          "internalType": "uint256",
          "name": "deadline",
          "type": "uint256"
        }
      ],
      "name": "swapTokensForExactTokens",
      "outputs": [
        {
          "internalType": "uint256[]",
          "name": "amounts",
          "type": "uint256[]"
        }
      ],
      "stateMutability": "nonpayable",
      "type": "function"
    },
    {
      "inputs": [],
      "name": "totalFeeCollected",
      "outputs": [
        {
          "internalType": "uint256",
          "name": "",
          "type": "uint256"
        }
      ],
      "stateMutability": "view",
      "type": "function"
    },
    {
      "inputs": [
        {
          "internalType": "address",
          "name": "_token",
          "type": "address"
        }
      ],
      "name": "withdraw",
      "outputs": [],
      "stateMutability": "nonpayable",
      "type": "function"
    },
    {
      "inputs": [],
      "name": "withdrawETH",
      "outputs": [],
      "stateMutability": "nonpayable",
      "type": "function"
    },
    {
      "stateMutability": "payable",
      "type": "receive"
    }
  ],
  "bytecode": {
    "object": "0x608060405234801561001057600080fd5b50600180546001600160a01b03191633179055614a9b806100326000396000f3fe6080604052600436106101d15760003560e01c80638da5cb5b116100f7578063c45a015511610095578063e086e5ec11610064578063e086e5ec14610bbd578063e8e3370014610bd2578063f305d71914610c52578063fb3bdb4114610c98576101ef565b8063c45a015514610a35578063d06ca61f14610a4a578063d326f75c14610aff578063ded9382a14610b4a576101ef565b8063ad615dec116100d1578063ad615dec1461093a578063af2979eb14610970578063b9b2b5cd146109c3578063baa2abde146109d8576101ef565b80638da5cb5b146108c1578063a7016023146108f2578063ad5c464814610925576101ef565b806351cff8d91161016f5780637ff36ab51161013e5780637ff36ab51461072657806382f27a1e146107aa57806385f8c259146107f55780638803dbee1461082b576101ef565b806351cff8d91461054e5780635b0d5984146105815780635c11d795146105f45780636d4928a01461068a576101ef565b80631f4375fa116101ab5780631f4375fa146103ad5780632195995c146103e557806323e7a4281461046357806338ed1739146104b8576101ef565b806302751cec146101f4578063054d50d4146102605780631f00ca74146102a8576101ef565b366101ef57336000805160206147ca833981519152146101ed57fe5b005b600080fd5b34801561020057600080fd5b50610247600480360360c081101561021757600080fd5b506001600160a01b0381358116916020810135916040820135916060810135916080820135169060a00135610d1c565b6040805192835260208301919091528051918290030190f35b34801561026c57600080fd5b506102966004803603606081101561028357600080fd5b5080359060208101359060400135610e12565b60408051918252519081900360200190f35b3480156102b457600080fd5b5061035d600480360360408110156102cb57600080fd5b81359190810190604081016020820135600160201b8111156102ec57600080fd5b8201836020820111156102fe57600080fd5b803590602001918460208302840111600160201b8311171561031f57600080fd5b919080806020026020016040519081016040528093929190818152602001838360200280828437600092019190915250929550610e27945050505050565b60408051602080825283518183015283519192839290830191858101910280838360005b83811015610399578181015183820152602001610381565b505050509050019250505060405180910390f35b6101ed600480360360808110156103c357600080fd5b508035906001600160a01b036020820135169060408101359060600135610e4b565b3480156103f157600080fd5b50610247600480360361016081101561040957600080fd5b506001600160a01b038135811691602081013582169160408201359160608101359160808201359160a08101359091169060c08101359060e081013515159060ff610100820135169061012081013590610140013561124d565b34801561046f57600080fd5b5061035d600480360360c081101561048657600080fd5b508035906020810135906001600160a01b03604082013581169160608101359091169060808101359060a00135611335565b3480156104c457600080fd5b5061035d600480360360a08110156104db57600080fd5b813591602081013591810190606081016040820135600160201b81111561050157600080fd5b82018360208201111561051357600080fd5b803590602001918460208302840111600160201b8311171561053457600080fd5b91935091506001600160a01b038135169060200135611595565b34801561055a57600080fd5b506101ed6004803603602081101561057157600080fd5b50356001600160a01b0316611748565b34801561058d57600080fd5b5061029660048036036101408110156105a557600080fd5b506001600160a01b0381358116916020810135916040820135916060810135916080820135169060a08101359060c081013515159060ff60e0820135169061010081013590610120013561182d565b34801561060057600080fd5b506101ed600480360360a081101561061757600080fd5b813591602081013591810190606081016040820135600160201b81111561063d57600080fd5b82018360208201111561064f57600080fd5b803590602001918460208302840111600160201b8311171561067057600080fd5b91935091506001600160a01b038135169060200135611917565b34801561069657600080fd5b5061035d600480360360c08110156106ad57600080fd5b813591602081013591810190606081016040820135600160201b8111156106d357600080fd5b8201836020820111156106e557600080fd5b803590602001918460208302840111600160201b8311171561070657600080fd5b91935091506001600160a01b038135169060208101359060400135611b62565b61035d6004803603608081101561073c57600080fd5b81359190810190604081016020820135600160201b81111561075d57600080fd5b82018360208201111561076f57600080fd5b803590602001918460208302840111600160201b8311171561079057600080fd5b91935091506001600160a01b038135169060200135611e64565b3480156107b657600080fd5b506101ed600480360360a08110156107cd57600080fd5b508035906020810135906001600160a01b036040820135169060608101359060800135612152565b34801561080157600080fd5b506102966004803603606081101561081857600080fd5b508035906020810135906040013561231f565b34801561083757600080fd5b5061035d600480360360a081101561084e57600080fd5b813591602081013591810190606081016040820135600160201b81111561087457600080fd5b82018360208201111561088657600080fd5b803590602001918460208302840111600160201b831117156108a757600080fd5b91935091506001600160a01b03813516906020013561232c565b3480156108cd57600080fd5b506108d6612413565b604080516001600160a01b039092168252519081900360200190f35b3480156108fe57600080fd5b506101ed6004803603602081101561091557600080fd5b50356001600160a01b0316612422565b34801561093157600080fd5b506108d66124fb565b34801561094657600080fd5b506102966004803603606081101561095d57600080fd5b508035906020810135906040013561250d565b34801561097c57600080fd5b50610296600480360360c081101561099357600080fd5b506001600160a01b0381358116916020810135916040820135916060810135916080820135169060a0013561251a565b3480156109cf57600080fd5b50610296612646565b3480156109e457600080fd5b50610247600480360360e08110156109fb57600080fd5b506001600160a01b038135811691602081013582169160408201359160608101359160808201359160a08101359091169060c0013561264c565b348015610a4157600080fd5b506108d661287e565b348015610a5657600080fd5b5061035d60048036036040811015610a6d57600080fd5b81359190810190604081016020820135600160201b811115610a8e57600080fd5b820183602082011115610aa057600080fd5b803590602001918460208302840111600160201b83111715610ac157600080fd5b919080806020026020016040519081016040528093929190818152602001838360200280828437600092019190915250929550612890945050505050565b348015610b0b57600080fd5b506101ed600480360360a0811015610b2257600080fd5b508035906020810135906001600160a01b0360408201351690606081013590608001356128ab565b348015610b5657600080fd5b506102476004803603610140811015610b6e57600080fd5b506001600160a01b0381358116916020810135916040820135916060810135916080820135169060a08101359060c081013515159060ff60e08201351690610100810135906101200135612b87565b348015610bc957600080fd5b506101ed612c77565b348015610bde57600080fd5b50610c346004803603610100811015610bf657600080fd5b506001600160a01b038135811691602081013582169160408201359160608101359160808201359160a08101359160c0820135169060e00135612cef565b60408051938452602084019290925282820152519081900360600190f35b610c34600480360360c0811015610c6857600080fd5b506001600160a01b0381358116916020810135916040820135916060810135916080820135169060a00135612e19565b61035d60048036036080811015610cae57600080fd5b81359190810190604081016020820135600160201b811115610ccf57600080fd5b820183602082011115610ce157600080fd5b803590602001918460208302840111600160201b83111715610d0257600080fd5b91935091506001600160a01b038135169060200135613051565b6000808242811015610d63576040805162461bcd60e51b81526020600482015260186024820152600080516020614a46833981519152604482015290519081900360640190fd5b610d80896000805160206147ca8339815191528a8a8a308a61264c565b9093509150610d9089868561336e565b6000805160206147ca8339815191526001600160a01b0316632e1a7d4d836040518263ffffffff1660e01b815260040180828152602001915050600060405180830381600087803b158015610de457600080fd5b505af1158015610df8573d6000803e3d6000fd5b50505050610e0685836134c2565b50965096945050505050565b6000610e1f8484846135ba565b949350505050565b6060610e426000805160206148c683398151915284846136aa565b90505b92915050565b8142811015610e8f576040805162461bcd60e51b81526020600482015260186024820152600080516020614a46833981519152604482015290519081900360640190fd5b6060610e9c6001866137f7565b90506000805160206147ca8339815191526001600160a01b031681600081518110610ec357fe5b60200260200101516001600160a01b031614610f14576040805162461bcd60e51b815260206004820152601d602482015260008051602061497d833981519152604482015290519081900360640190fd5b6127103484020480610f575760405162461bcd60e51b815260040180806020018281038252602381526020018061490e6023913960400191505060405180910390fd5b600080548201815560408051630d0e30db60e41b8152905134849003926000805160206147ca8339815191529263d0e30db092859260048084019391929182900301818588803b158015610faa57600080fd5b505af1158015610fbe573d6000803e3d6000fd5b50505050506000805160206147ca8339815191526001600160a01b031663a9059cbb6110216000805160206148c683398151915286600081518110610fff57fe5b60200260200101518760018151811061101457fe5b6020026020010151613901565b836040518363ffffffff1660e01b815260040180836001600160a01b03166001600160a01b0316815260200182815260200192505050602060405180830381600087803b15801561107157600080fd5b505af1158015611085573d6000803e3d6000fd5b505050506040513d602081101561109b57600080fd5b50516110a357fe5b604080516370a0823160e01b815233600482015290516000916001600160a01b038a16916370a0823191602480820192602092909190829003018186803b1580156110ed57600080fd5b505afa158015611101573d6000803e3d6000fd5b505050506040513d602081101561111757600080fd5b5051905061112584336139c1565b886111cf828660018851038151811061113a57fe5b60200260200101516001600160a01b03166370a08231336040518263ffffffff1660e01b815260040180826001600160a01b03166001600160a01b0316815260200191505060206040518083038186803b15801561119757600080fd5b505afa1580156111ab573d6000803e3d6000fd5b505050506040513d60208110156111c157600080fd5b50519063ffffffff613ca816565b101561120c5760405162461bcd60e51b815260040180806020018281038252602b8152602001806149c3602b913960400191505060405180910390fd5b60408051848152905133917f237dc3cc59ed2345121b102ace6c6ee25b05e01c8a5e61fa09aac27ed833ad9c919081900360200190a2505050505050505050565b600080600061126b6000805160206148c68339815191528f8f613901565b905060008761127a578c61127e565b6000195b6040805163d505accf60e01b815233600482015230602482015260448101839052606481018c905260ff8a16608482015260a4810189905260c4810188905290519192506001600160a01b0384169163d505accf9160e48082019260009290919082900301818387803b1580156112f457600080fd5b505af1158015611308573d6000803e3d6000fd5b5050505061131b8f8f8f8f8f8f8f61264c565b809450819550505050509b509b9950505050505050505050565b6060824281101561137b576040805162461bcd60e51b81526020600482015260186024820152600080516020614a46833981519152604482015290519081900360640190fd5b60606113886000886137f7565b90506000805160206147ca8339815191526001600160a01b0316816001835103815181106113b257fe5b60200260200101516001600160a01b031614611403576040805162461bcd60e51b815260206004820152601d602482015260008051602061497d833981519152604482015290519081900360640190fd5b61141c6000805160206148c68339815191528a836136aa565b9250878360008151811061142c57fe5b602002602001015111156114715760405162461bcd60e51b81526004018080602001828103825260278152602001806149566027913960400191505060405180910390fd5b6114d88160008151811061148157fe5b6020026020010151876114be6000805160206148c6833981519152856000815181106114a957fe5b60200260200101518660018151811061101457fe5b866000815181106114cb57fe5b6020026020010151613cf8565b6114e3838230613e55565b6000805160206147ca8339815191526001600160a01b0316632e1a7d4d8460018651038151811061151057fe5b60200260200101516040518263ffffffff1660e01b815260040180828152602001915050600060405180830381600087803b15801561154e57600080fd5b505af1158015611562573d6000803e3d6000fd5b5050505061158986858560018751038151811061157b57fe5b6020026020010151036134c2565b50509695505050505050565b606081428110156115db576040805162461bcd60e51b81526020600482015260186024820152600080516020614a46833981519152604482015290519081900360640190fd5b6116276000805160206148c68339815191528988888080602002602001604051908101604052809392919081815260200183836020028082843760009201919091525061406a92505050565b9150868260018451038151811061163a57fe5b6020026020010151101561167f5760405162461bcd60e51b815260040180806020018281038252602b8152602001806149c3602b913960400191505060405180910390fd5b6116fe8686600081811061168f57fe5b905060200201356001600160a01b0316336116f16000805160206148c68339815191528a8a60008181106116bf57fe5b905060200201356001600160a01b03168b8b60018181106116dc57fe5b905060200201356001600160a01b0316613901565b856000815181106114cb57fe5b61173d82878780806020026020016040519081016040528093929190818152602001838360200280828437600092019190915250899250613e55915050565b509695505050505050565b6001546001600160a01b031633146117a4576040805162461bcd60e51b815260206004820152601a6024820152792ab734b9bbb0b82b192937baba32b91d102727aa1027aba722a960311b604482015290519081900360640190fd5b600154604080516370a0823160e01b8152306004820152905161182a9284926001600160a01b0391821692918416916370a0823191602480820192602092909190829003018186803b1580156117f957600080fd5b505afa15801561180d573d6000803e3d6000fd5b505050506040513d602081101561182357600080fd5b505161336e565b50565b6000806118576000805160206148c68339815191528d6000805160206147ca833981519152613901565b9050600086611866578b61186a565b6000195b6040805163d505accf60e01b815233600482015230602482015260448101839052606481018b905260ff8916608482015260a4810188905260c4810187905290519192506001600160a01b0384169163d505accf9160e48082019260009290919082900301818387803b1580156118e057600080fd5b505af11580156118f4573d6000803e3d6000fd5b505050506119068d8d8d8d8d8d61251a565b9d9c50505050505050505050505050565b804281101561195b576040805162461bcd60e51b81526020600482015260186024820152600080516020614a46833981519152604482015290519081900360640190fd5b6119be8585600081811061196b57fe5b905060200201356001600160a01b0316336119b86000805160206148c68339815191528989600081811061199b57fe5b905060200201356001600160a01b03168a8a60018181106116dc57fe5b8a613cf8565b6000858560001981018181106119d057fe5b905060200201356001600160a01b03166001600160a01b03166370a08231856040518263ffffffff1660e01b815260040180826001600160a01b03166001600160a01b0316815260200191505060206040518083038186803b158015611a3557600080fd5b505afa158015611a49573d6000803e3d6000fd5b505050506040513d6020811015611a5f57600080fd5b50516040805160208881028281018201909352888252929350611aa19290918991899182918501908490808284376000920191909152508892506139c1915050565b86611b1b8288886000198101818110611ab657fe5b905060200201356001600160a01b03166001600160a01b03166370a08231886040518263ffffffff1660e01b815260040180826001600160a01b03166001600160a01b0316815260200191505060206040518083038186803b15801561119757600080fd5b1015611b585760405162461bcd60e51b815260040180806020018281038252602b8152602001806149c3602b913960400191505060405180910390fd5b5050505050505050565b60608242811015611ba8576040805162461bcd60e51b81526020600482015260186024820152600080516020614a46833981519152604482015290519081900360640190fd5b6000805160206147ca83398151915287876000198101818110611bc757fe5b905060200201356001600160a01b03166001600160a01b031614611c20576040805162461bcd60e51b815260206004820152601d602482015260008051602061497d833981519152604482015290519081900360640190fd5b611c6c6000805160206148c68339815191528a89898080602002602001604051908101604052809392919081815260200183836020028082843760009201919091525061406a92505050565b9150600082600184510381518110611c8057fe5b60200260200101519050600061271085830281611c9957fe5b04905060008111611cf1576040805162461bcd60e51b815260206004820152601b60248201527f556e69737761705632526f757465723a204645455f414d4f554e540000000000604482015290519081900360640190fd5b898583031015611d325760405162461bcd60e51b815260040180806020018281038252602b8152602001806149c3602b913960400191505060405180910390fd5b611d9c89896000818110611d4257fe5b905060200201356001600160a01b031633611d8f6000805160206148c68339815191528d8d6000818110611d7257fe5b905060200201356001600160a01b03168e8e60018181106116dc57fe5b876000815181106114cb57fe5b611ddb848a8a80806020026020016040519081016040528093929190818152602001838360200280828437600092019190915250309250613e55915050565b6000805160206147ca8339815191526001600160a01b0316632e1a7d4d836040518263ffffffff1660e01b815260040180828152602001915050600060405180830381600087803b158015611e2f57600080fd5b505af1158015611e43573d6000803e3d6000fd5b5050508183039050611e5588826134c2565b50505050979650505050505050565b60608142811015611eaa576040805162461bcd60e51b81526020600482015260186024820152600080516020614a46833981519152604482015290519081900360640190fd5b6000805160206147ca8339815191528686600081611ec457fe5b905060200201356001600160a01b03166001600160a01b031614611f1d576040805162461bcd60e51b815260206004820152601d602482015260008051602061497d833981519152604482015290519081900360640190fd5b611f696000805160206148c68339815191523488888080602002602001604051908101604052809392919081815260200183836020028082843760009201919091525061406a92505050565b91508682600184510381518110611f7c57fe5b60200260200101511015611fc15760405162461bcd60e51b815260040180806020018281038252602b8152602001806149c3602b913960400191505060405180910390fd5b6000805160206147ca8339815191526001600160a01b031663d0e30db083600081518110611feb57fe5b60200260200101516040518263ffffffff1660e01b81526004016000604051808303818588803b15801561201e57600080fd5b505af1158015612032573d6000803e3d6000fd5b50505050506000805160206147ca8339815191526001600160a01b031663a9059cbb6120736000805160206148c68339815191528989600081811061199b57fe5b8460008151811061208057fe5b60200260200101516040518363ffffffff1660e01b815260040180836001600160a01b03166001600160a01b0316815260200182815260200192505050602060405180830381600087803b1580156120d757600080fd5b505af11580156120eb573d6000803e3d6000fd5b505050506040513d602081101561210157600080fd5b505161210957fe5b61214882878780806020026020016040519081016040528093929190818152602001838360200280828437600092019190915250899250613e55915050565b5095945050505050565b61271081860204806121ab576040805162461bcd60e51b815260206004820152601b60248201527f556e69737761705632526f757465723a204645455f414d4f554e540000000000604482015290519081900360640190fd5b60008054820181556040805163047cf48560e31b81528884016004820152602481018890526001600160a01b03871660448201523360648201526084810186905260a48101849052905130926323e7a4289260c4808201939182900301818387803b15801561221957600080fd5b505af115801561222d573d6000803e3d6000fd5b505050506040513d6000823e601f3d908101601f19168201604052602081101561225657600080fd5b8101908080516040519392919084600160201b82111561227557600080fd5b90830190602082018581111561228a57600080fd5b82518660208202830111600160201b821117156122a657600080fd5b82525081516020918201928201910280838360005b838110156122d35781810151838201526020016122bb565b50505050919091016040818152878252513396507f237dc3cc59ed2345121b102ace6c6ee25b05e01c8a5e61fa09aac27ed833ad9c9550908190036020019350915050a2505050505050565b6000610e1f8484846141a1565b60608142811015612372576040805162461bcd60e51b81526020600482015260186024820152600080516020614a46833981519152604482015290519081900360640190fd5b6123be6000805160206148c6833981519152898888808060200260200160405190810160405280939291908181526020018383602002808284376000920191909152506136aa92505050565b915086826000815181106123ce57fe5b6020026020010151111561167f5760405162461bcd60e51b81526004018080602001828103825260278152602001806149566027913960400191505060405180910390fd5b6001546001600160a01b031681565b6001546001600160a01b0316331461247e576040805162461bcd60e51b815260206004820152601a6024820152792ab734b9bbb0b82b192937baba32b91d102727aa1027aba722a960311b604482015290519081900360640190fd5b6001600160a01b0381166124d9576040805162461bcd60e51b815260206004820152601d60248201527f556e69737761705632526f757465723a205a45524f5f41444452455353000000604482015290519081900360640190fd5b600180546001600160a01b0319166001600160a01b0392909216919091179055565b6000805160206147ca83398151915281565b6000610e1f848484614291565b60008142811015612560576040805162461bcd60e51b81526020600482015260186024820152600080516020614a46833981519152604482015290519081900360640190fd5b61257d886000805160206147ca833981519152898989308961264c565b604080516370a0823160e01b815230600482015290519194506125d092508a9187916001600160a01b038416916370a0823191602480820192602092909190829003018186803b1580156117f957600080fd5b6000805160206147ca8339815191526001600160a01b0316632e1a7d4d836040518263ffffffff1660e01b815260040180828152602001915050600060405180830381600087803b15801561262457600080fd5b505af1158015612638573d6000803e3d6000fd5b5050505061173d84836134c2565b60005481565b6000808242811015612693576040805162461bcd60e51b81526020600482015260186024820152600080516020614a46833981519152604482015290519081900360640190fd5b60006126ae6000805160206148c68339815191528c8c613901565b604080516323b872dd60e01b81523360048201526001600160a01b03831660248201819052604482018d9052915192935090916323b872dd916064808201926020929091908290030181600087803b15801561270957600080fd5b505af115801561271d573d6000803e3d6000fd5b505050506040513d602081101561273357600080fd5b50506040805163226bf2d160e21b81526001600160a01b03888116600483015282516000938493928616926389afcb44926024808301939282900301818787803b15801561278057600080fd5b505af1158015612794573d6000803e3d6000fd5b505050506040513d60408110156127aa57600080fd5b508051602090910151909250905060006127c48e8e61433d565b509050806001600160a01b03168e6001600160a01b0316146127e75781836127ea565b82825b90975095508a87101561282e5760405162461bcd60e51b815260040180806020018281038252602681526020018061499d6026913960400191505060405180910390fd5b8986101561286d5760405162461bcd60e51b81526004018080602001828103825260268152602001806148a06026913960400191505060405180910390fd5b505050505097509795505050505050565b6000805160206148c683398151915281565b6060610e426000805160206148c6833981519152848461406a565b81428110156128ef576040805162461bcd60e51b81526020600482015260186024820152600080516020614a46833981519152604482015290519081900360640190fd5b60606128fc6000866137f7565b90506000805160206147ca8339815191526001600160a01b03168160018351038151811061292657fe5b60200260200101516001600160a01b031614612977576040805162461bcd60e51b815260206004820152601d602482015260008051602061497d833981519152604482015290519081900360640190fd5b6129af8160008151811061298757fe5b6020026020010151336119b86000805160206148c6833981519152856000815181106114a957fe5b6129b981306139c1565b604080516370a0823160e01b815230600482015290516000916000805160206147ca833981519152916370a0823191602480820192602092909190829003018186803b158015612a0857600080fd5b505afa158015612a1c573d6000803e3d6000fd5b505050506040513d6020811015612a3257600080fd5b5051905086811015612a755760405162461bcd60e51b815260040180806020018281038252602b8152602001806149c3602b913960400191505060405180910390fd5b6000805160206147ca8339815191526001600160a01b0316632e1a7d4d826040518263ffffffff1660e01b815260040180828152602001915050600060405180830381600087803b158015612ac957600080fd5b505af1158015612add573d6000803e3d6000fd5b50505050600061271085830281612af057fe5b04905060008111612b325760405162461bcd60e51b815260040180806020018281038252602381526020018061490e6023913960400191505060405180910390fd5b6000805482019055612b46338284036134c2565b60408051828152905133917f237dc3cc59ed2345121b102ace6c6ee25b05e01c8a5e61fa09aac27ed833ad9c919081900360200190a2505050505050505050565b6000806000612bb36000805160206148c68339815191528e6000805160206147ca833981519152613901565b9050600087612bc2578c612bc6565b6000195b6040805163d505accf60e01b815233600482015230602482015260448101839052606481018c905260ff8a16608482015260a4810189905260c4810188905290519192506001600160a01b0384169163d505accf9160e48082019260009290919082900301818387803b158015612c3c57600080fd5b505af1158015612c50573d6000803e3d6000fd5b50505050612c628e8e8e8e8e8e610d1c565b909f909e509c50505050505050505050505050565b6001546001600160a01b03163314612cd3576040805162461bcd60e51b815260206004820152601a6024820152792ab734b9bbb0b82b192937baba32b91d102727aa1027aba722a960311b604482015290519081900360640190fd5b60008055600154612ced906001600160a01b0316476134c2565b565b60008060008342811015612d38576040805162461bcd60e51b81526020600482015260186024820152600080516020614a46833981519152604482015290519081900360640190fd5b612d468c8c8c8c8c8c61441b565b90945092506000612d666000805160206148c68339815191528e8e613901565b9050612d748d338388613cf8565b612d808c338387613cf8565b806001600160a01b0316636a627842886040518263ffffffff1660e01b815260040180826001600160a01b03166001600160a01b03168152602001915050602060405180830381600087803b158015612dd857600080fd5b505af1158015612dec573d6000803e3d6000fd5b505050506040513d6020811015612e0257600080fd5b5051949d939c50939a509198505050505050505050565b60008060008342811015612e62576040805162461bcd60e51b81526020600482015260186024820152600080516020614a46833981519152604482015290519081900360640190fd5b612e7e8a6000805160206147ca8339815191528b348c8c61441b565b90945092506000612eac6000805160206148c68339815191528c6000805160206147ca833981519152613901565b9050612eba8b338388613cf8565b6000805160206147ca8339815191526001600160a01b031663d0e30db0856040518263ffffffff1660e01b81526004016000604051808303818588803b158015612f0357600080fd5b505af1158015612f17573d6000803e3d6000fd5b50506040805163a9059cbb60e01b81526001600160a01b03861660048201526024810189905290516000805160206147ca833981519152945063a9059cbb9350604480830193506020928290030181600087803b158015612f7757600080fd5b505af1158015612f8b573d6000803e3d6000fd5b505050506040513d6020811015612fa157600080fd5b5051612fa957fe5b806001600160a01b0316636a627842886040518263ffffffff1660e01b815260040180826001600160a01b03166001600160a01b03168152602001915050602060405180830381600087803b15801561300157600080fd5b505af1158015613015573d6000803e3d6000fd5b505050506040513d602081101561302b57600080fd5b505192503484101561304357613043338534036134c2565b505096509650969350505050565b60608142811015613097576040805162461bcd60e51b81526020600482015260186024820152600080516020614a46833981519152604482015290519081900360640190fd5b6000805160206147ca83398151915286866000816130b157fe5b905060200201356001600160a01b03166001600160a01b03161461310a576040805162461bcd60e51b815260206004820152601d602482015260008051602061497d833981519152604482015290519081900360640190fd5b6131566000805160206148c6833981519152888888808060200260200160405190810160405280939291908181526020018383602002808284376000920191909152506136aa92505050565b9150348260008151811061316657fe5b602002602001015111156131ab5760405162461bcd60e51b81526004018080602001828103825260278152602001806149566027913960400191505060405180910390fd5b6000805160206147ca8339815191526001600160a01b031663d0e30db0836000815181106131d557fe5b60200260200101516040518263ffffffff1660e01b81526004016000604051808303818588803b15801561320857600080fd5b505af115801561321c573d6000803e3d6000fd5b50505050506000805160206147ca8339815191526001600160a01b031663a9059cbb61325d6000805160206148c68339815191528989600081811061199b57fe5b8460008151811061326a57fe5b60200260200101516040518363ffffffff1660e01b815260040180836001600160a01b03166001600160a01b0316815260200182815260200192505050602060405180830381600087803b1580156132c157600080fd5b505af11580156132d5573d6000803e3d6000fd5b505050506040513d60208110156132eb57600080fd5b50516132f357fe5b61333282878780806020026020016040519081016040528093929190818152602001838360200280828437600092019190915250899250613e55915050565b8160008151811061333f57fe5b602002602001015134111561214857612148338360008151811061335f57fe5b602002602001015134036134c2565b604080516001600160a01b038481166024830152604480830185905283518084039091018152606490920183526020820180516001600160e01b031663a9059cbb60e01b178152925182516000946060949389169392918291908083835b602083106133eb5780518252601f1990920191602091820191016133cc565b6001836020036101000a0380198251168184511680821785525050505050509050019150506000604051808303816000865af19150503d806000811461344d576040519150601f19603f3d011682016040523d82523d6000602084013e613452565b606091505b5091509150818015613480575080511580613480575080806020019051602081101561347d57600080fd5b50515b6134bb5760405162461bcd60e51b815260040180806020018281038252602d8152602001806149ee602d913960400191505060405180910390fd5b5050505050565b604080516000808252602082019092526001600160a01b0384169083906040518082805190602001908083835b6020831061350e5780518252601f1990920191602091820191016134ef565b6001836020036101000a03801982511681845116808217855250505050505090500191505060006040518083038185875af1925050503d8060008114613570576040519150601f19603f3d011682016040523d82523d6000602084013e613575565b606091505b50509050806135b55760405162461bcd60e51b81526004018080602001828103825260348152602001806148476034913960400191505060405180910390fd5b505050565b60008084116135fa5760405162461bcd60e51b815260040180806020018281038252602b815260200180614a1b602b913960400191505060405180910390fd5b60008311801561360a5750600082115b6136455760405162461bcd60e51b81526004018080602001828103825260288152602001806148e66028913960400191505060405180910390fd5b6000613659856103e563ffffffff61465016565b9050600061366d828563ffffffff61465016565b9050600061369383613687886103e863ffffffff61465016565b9063ffffffff6146b316565b905080828161369e57fe5b04979650505050505050565b6060600282511015613703576040805162461bcd60e51b815260206004820152601e60248201527f556e697377617056324c6962726172793a20494e56414c49445f504154480000604482015290519081900360640190fd5b815167ffffffffffffffff8111801561371b57600080fd5b50604051908082528060200260200182016040528015613745578160200160208202803683370190505b509050828160018351038151811061375957fe5b60209081029190910101528151600019015b80156137ef576000806137a88786600186038151811061378757fe5b602002602001015187868151811061379b57fe5b6020026020010151614702565b915091506137ca8484815181106137bb57fe5b602002602001015183836141a1565b8460018503815181106137d957fe5b602090810291909101015250506000190161376b565b509392505050565b6040805160028082526060808301845292839291906020830190803683370190505090508315613890576000805160206147ca8339815191528160008151811061383d57fe5b60200260200101906001600160a01b031690816001600160a01b031681525050828160018151811061386b57fe5b60200260200101906001600160a01b031690816001600160a01b031681525050610e42565b828160008151811061389e57fe5b60200260200101906001600160a01b031690816001600160a01b0316815250506000805160206147ca833981519152816001815181106138da57fe5b60200260200101906001600160a01b031690816001600160a01b0316815250509392505050565b6000806000613910858561433d565b604080516bffffffffffffffffffffffff19606094851b811660208084019190915293851b81166034830152825160288184030181526048830184528051908501206001600160f81b031960688401529a90941b9093166069840152607d8301989098527f96e8ac4277198ff8b6f785478aa9a39f403cb768dd02cbee326c3e7da348845f609d808401919091528851808403909101815260bd909201909752805196019590952095945050505050565b60005b60018351038110156135b5576000808483815181106139df57fe5b60200260200101518584600101815181106139f657fe5b6020026020010151915091506000613a0e838361433d565b5090506000613a2c6000805160206148c68339815191528585613901565b9050600080600080846001600160a01b0316630902f1ac6040518163ffffffff1660e01b815260040160606040518083038186803b158015613a6d57600080fd5b505afa158015613a81573d6000803e3d6000fd5b505050506040513d6060811015613a9757600080fd5b5080516020909101516001600160701b0391821693501690506000806001600160a01b038a811690891614613acd578284613ad0565b83835b91509150613b2e828b6001600160a01b03166370a082318a6040518263ffffffff1660e01b815260040180826001600160a01b03166001600160a01b0316815260200191505060206040518083038186803b15801561119757600080fd5b9550613b3b8683836135ba565b945050505050600080856001600160a01b0316886001600160a01b031614613b6557826000613b69565b6000835b91509150600060028c51038a10613b80578a613ba2565b613ba26000805160206148c6833981519152898e8d6002018151811061101457fe5b604080516000808252602082019283905263022c0d9f60e01b835260248201878152604483018790526001600160a01b038086166064850152608060848501908152845160a48601819052969750908c169563022c0d9f958a958a958a9591949193919260c486019290918190849084905b83811015613c2c578181015183820152602001613c14565b50505050905090810190601f168015613c595780820380516001836020036101000a031916815260200191505b5095505050505050600060405180830381600087803b158015613c7b57600080fd5b505af1158015613c8f573d6000803e3d6000fd5b50506001909b019a506139c49950505050505050505050565b80820382811115610e45576040805162461bcd60e51b815260206004820152601560248201527464732d6d6174682d7375622d756e646572666c6f7760581b604482015290519081900360640190fd5b604080516001600160a01b0385811660248301528481166044830152606480830185905283518084039091018152608490920183526020820180516001600160e01b03166323b872dd60e01b17815292518251600094606094938a169392918291908083835b60208310613d7d5780518252601f199092019160209182019101613d5e565b6001836020036101000a0380198251168184511680821785525050505050509050019150506000604051808303816000865af19150503d8060008114613ddf576040519150601f19603f3d011682016040523d82523d6000602084013e613de4565b606091505b5091509150818015613e12575080511580613e125750808060200190516020811015613e0f57600080fd5b50515b613e4d5760405162461bcd60e51b81526004018080602001828103825260318152602001806148166031913960400191505060405180910390fd5b505050505050565b60005b600183510381101561406457600080848381518110613e7357fe5b6020026020010151858460010181518110613e8a57fe5b6020026020010151915091506000613ea2838361433d565b5090506000878560010181518110613eb657fe5b60200260200101519050600080836001600160a01b0316866001600160a01b031614613ee457826000613ee8565b6000835b91509150600060028a51038810613eff5788613f21565b613f216000805160206148c6833981519152878c8b6002018151811061101457fe5b9050613f3c6000805160206148c68339815191528888613901565b6001600160a01b031663022c0d9f84848460006040519080825280601f01601f191660200182016040528015613f79576020820181803683370190505b506040518563ffffffff1660e01b815260040180858152602001848152602001836001600160a01b03166001600160a01b0316815260200180602001828103825283818151815260200191508051906020019080838360005b83811015613fea578181015183820152602001613fd2565b50505050905090810190601f1680156140175780820380516001836020036101000a031916815260200191505b5095505050505050600060405180830381600087803b15801561403957600080fd5b505af115801561404d573d6000803e3d6000fd5b505060019099019850613e58975050505050505050565b50505050565b60606002825110156140c3576040805162461bcd60e51b815260206004820152601e60248201527f556e697377617056324c6962726172793a20494e56414c49445f504154480000604482015290519081900360640190fd5b815167ffffffffffffffff811180156140db57600080fd5b50604051908082528060200260200182016040528015614105578160200160208202803683370190505b509050828160008151811061411657fe5b60200260200101818152505060005b60018351038110156137ef5760008061415b8786858151811061414457fe5b602002602001015187866001018151811061379b57fe5b9150915061417d84848151811061416e57fe5b602002602001015183836135ba565b84846001018151811061418c57fe5b60209081029190910101525050600101614125565b60008084116141e15760405162461bcd60e51b815260040180806020018281038252602c8152602001806147ea602c913960400191505060405180910390fd5b6000831180156141f15750600082115b61422c5760405162461bcd60e51b81526004018080602001828103825260288152602001806148e66028913960400191505060405180910390fd5b60006142506103e8614244868863ffffffff61465016565b9063ffffffff61465016565b9050600061426a6103e5614244868963ffffffff613ca816565b9050614287600182848161427a57fe5b049063ffffffff6146b316565b9695505050505050565b60008084116142d15760405162461bcd60e51b81526004018080602001828103825260258152602001806149316025913960400191505060405180910390fd5b6000831180156142e15750600082115b61431c5760405162461bcd60e51b81526004018080602001828103825260288152602001806148e66028913960400191505060405180910390fd5b8261432d858463ffffffff61465016565b8161433457fe5b04949350505050565b600080826001600160a01b0316846001600160a01b031614156143915760405162461bcd60e51b815260040180806020018281038252602581526020018061487b6025913960400191505060405180910390fd5b826001600160a01b0316846001600160a01b0316106143b15782846143b4565b83835b90925090506001600160a01b038216614414576040805162461bcd60e51b815260206004820152601e60248201527f556e697377617056324c6962726172793a205a45524f5f414444524553530000604482015290519081900360640190fd5b9250929050565b6040805163e6a4390560e01b81526001600160a01b038881166004830152871660248201529051600091829182916000805160206148c68339815191529163e6a4390591604480820192602092909190829003018186803b15801561447f57600080fd5b505afa158015614493573d6000803e3d6000fd5b505050506040513d60208110156144a957600080fd5b50516001600160a01b0316141561454557604080516364e329cb60e11b81526001600160a01b038a811660048301528916602482015290516000805160206148c68339815191529163c9c653969160448083019260209291908290030181600087803b15801561451857600080fd5b505af115801561452c573d6000803e3d6000fd5b505050506040513d602081101561454257600080fd5b50505b6000806145616000805160206148c68339815191528b8b614702565b91509150816000148015614573575080155b1561458357879350869250614643565b6000614590898484614291565b90508781116145e357858110156145d85760405162461bcd60e51b81526004018080602001828103825260268152602001806148a06026913960400191505060405180910390fd5b889450925082614641565b60006145f0898486614291565b9050898111156145fc57fe5b8781101561463b5760405162461bcd60e51b815260040180806020018281038252602681526020018061499d6026913960400191505060405180910390fd5b94508793505b505b5050965096945050505050565b600081158061466b5750508082028282828161466857fe5b04145b610e45576040805162461bcd60e51b815260206004820152601460248201527364732d6d6174682d6d756c2d6f766572666c6f7760601b604482015290519081900360640190fd5b80820182811015610e45576040805162461bcd60e51b815260206004820152601460248201527364732d6d6174682d6164642d6f766572666c6f7760601b604482015290519081900360640190fd5b6000806000614711858561433d565b509050600080614722888888613901565b6001600160a01b0316630902f1ac6040518163ffffffff1660e01b815260040160606040518083038186803b15801561475a57600080fd5b505afa15801561476e573d6000803e3d6000fd5b505050506040513d606081101561478457600080fd5b5080516020909101516001600160701b0391821693501690506001600160a01b03878116908416146147b75780826147ba565b81815b9099909850965050505050505056fe000000000000000000000000c02aaa39b223fe8d0a0e5c4f27ead9083c756cc2556e697377617056324c6962726172793a20494e53554646494349454e545f4f55545055545f414d4f554e545472616e7366657248656c7065723a3a7472616e7366657246726f6d3a207472616e7366657246726f6d206661696c65645472616e7366657248656c7065723a3a736166655472616e736665724554483a20455448207472616e73666572206661696c6564556e697377617056324c6962726172793a204944454e544943414c5f414444524553534553556e69737761705632526f757465723a20494e53554646494349454e545f425f414d4f554e540000000000000000000000005c69bee701ef814a2b6a3edd4b1652cb9cc5aa6f556e697377617056324c6962726172793a20494e53554646494349454e545f4c4951554944495459556e69737761705632526f757465723a20494e56414c49445f4645455f414d4f554e54556e697377617056324c6962726172793a20494e53554646494349454e545f414d4f554e54556e69737761705632526f757465723a204558434553534956455f494e5055545f414d4f554e54556e69737761705632526f757465723a20494e56414c49445f50415448000000556e69737761705632526f757465723a20494e53554646494349454e545f415f414d4f554e54556e69737761705632526f757465723a20494e53554646494349454e545f4f55545055545f414d4f554e545472616e7366657248656c7065723a3a736166655472616e736665723a207472616e73666572206661696c6564556e697377617056324c6962726172793a20494e53554646494349454e545f494e5055545f414d4f554e54556e69737761705632526f757465723a20455850495245440000000000000000a2646970667358221220e2a2125bc2355f3d9fbb939f48604488c4e3555cfda8fd851f1c1f383fd17fb964736f6c63430006060033",
    "linkReferences": {}
  },
  "methodIdentifiers": {
    "ProphetBuy(uint256,address,uint256,uint256)": "1f4375fa",
    "ProphetSell(uint256,uint256,address,uint256,uint256)": "d326f75c",
    "ProphetSmartSell(uint256,uint256,address,uint256,uint256)": "82f27a1e",
    "WETH()": "ad5c4648",
    "addLiquidity(address,address,uint256,uint256,uint256,uint256,address,uint256)": "e8e33700",
    "addLiquidityETH(address,uint256,uint256,uint256,address,uint256)": "f305d719",
    "factory()": "c45a0155",
    "getAmountIn(uint256,uint256,uint256)": "85f8c259",
    "getAmountOut(uint256,uint256,uint256)": "054d50d4",
    "getAmountsIn(uint256,address[])": "1f00ca74",
    "getAmountsOut(uint256,address[])": "d06ca61f",
    "owner()": "8da5cb5b",
    "quote(uint256,uint256,uint256)": "ad615dec",
    "removeLiquidity(address,address,uint256,uint256,uint256,address,uint256)": "baa2abde",
    "removeLiquidityETH(address,uint256,uint256,uint256,address,uint256)": "02751cec",
    "removeLiquidityETHSupportingFeeOnTransferTokens(address,uint256,uint256,uint256,address,uint256)": "af2979eb",
    "removeLiquidityETHWithPermit(address,uint256,uint256,uint256,address,uint256,bool,uint8,bytes32,bytes32)": "ded9382a",
    "removeLiquidityETHWithPermitSupportingFeeOnTransferTokens(address,uint256,uint256,uint256,address,uint256,bool,uint8,bytes32,bytes32)": "5b0d5984",
    "removeLiquidityWithPermit(address,address,uint256,uint256,uint256,address,uint256,bool,uint8,bytes32,bytes32)": "2195995c",
    "setOwnership(address)": "a7016023",
    "swapETHForExactTokens(uint256,address[],address,uint256)": "fb3bdb41",
    "swapExactETHForTokens(uint256,address[],address,uint256)": "7ff36ab5",
    "swapExactTokensForETH(uint256,uint256,address[],address,uint256,uint256)": "6d4928a0",
    "swapExactTokensForTokens(uint256,uint256,address[],address,uint256)": "38ed1739",
    "swapExactTokensForTokensSupportingFeeOnTransferTokens(uint256,uint256,address[],address,uint256)": "5c11d795",
    "swapTokensForExactETH(uint256,uint256,address,address,uint256,uint256)": "23e7a428",
    "swapTokensForExactTokens(uint256,uint256,address[],address,uint256)": "8803dbee",
    "totalFeeCollected()": "b9b2b5cd",
    "withdraw(address)": "51cff8d9",
    "withdrawETH()": "e086e5ec"
  },
  "id": 0
}