{"abi":[{"type":"function","name":"DOMAIN_SEPARATOR","inputs":[],"outputs":[{"name":"","type":"bytes32","internalType":"bytes32"}],"stateMutability":"view"},{"type":"function","name":"allowance","inputs":[{"name":"","type":"address","internalType":"address"},{"name":"","type":"address","internalType":"address"}],"outputs":[{"name":"","type":"uint256","internalType":"uint256"}],"stateMutability":"view"},{"type":"function","name":"approve","inputs":[{"name":"spender","type":"address","internalType":"address"},{"name":"amount","type":"uint256","internalType":"uint256"}],"outputs":[{"name":"","type":"bool","internalType":"bool"}],"stateMutability":"nonpayable"},{"type":"function","name":"balanceOf","inputs":[{"name":"","type":"address","internalType":"address"}],"outputs":[{"name":"","type":"uint256","internalType":"uint256"}],"stateMutability":"view"},{"type":"function","name":"decimals","inputs":[],"outputs":[{"name":"","type":"uint8","internalType":"uint8"}],"stateMutability":"view"},{"type":"function","name":"initialize","inputs":[{"name":"_name","type":"string","internalType":"string"},{"name":"_symbol","type":"string","internalType":"string"},{"name":"_decimals","type":"uint8","internalType":"uint8"}],"outputs":[],"stateMutability":"nonpayable"},{"type":"function","name":"name","inputs":[],"outputs":[{"name":"","type":"string","internalType":"string"}],"stateMutability":"view"},{"type":"function","name":"nonces","inputs":[{"name":"","type":"address","internalType":"address"}],"outputs":[{"name":"","type":"uint256","internalType":"uint256"}],"stateMutability":"view"},{"type":"function","name":"permit","inputs":[{"name":"owner","type":"address","internalType":"address"},{"name":"spender","type":"address","internalType":"address"},{"name":"value","type":"uint256","internalType":"uint256"},{"name":"deadline","type":"uint256","internalType":"uint256"},{"name":"v","type":"uint8","internalType":"uint8"},{"name":"r","type":"bytes32","internalType":"bytes32"},{"name":"s","type":"bytes32","internalType":"bytes32"}],"outputs":[],"stateMutability":"nonpayable"},{"type":"function","name":"symbol","inputs":[],"outputs":[{"name":"","type":"string","internalType":"string"}],"stateMutability":"view"},{"type":"function","name":"totalSupply","inputs":[],"outputs":[{"name":"","type":"uint256","internalType":"uint256"}],"stateMutability":"view"},{"type":"function","name":"transfer","inputs":[{"name":"to","type":"address","internalType":"address"},{"name":"amount","type":"uint256","internalType":"uint256"}],"outputs":[{"name":"","type":"bool","internalType":"bool"}],"stateMutability":"nonpayable"},{"type":"function","name":"transferFrom","inputs":[{"name":"from","type":"address","internalType":"address"},{"name":"to","type":"address","internalType":"address"},{"name":"amount","type":"uint256","internalType":"uint256"}],"outputs":[{"name":"","type":"bool","internalType":"bool"}],"stateMutability":"nonpayable"},{"type":"event","name":"Approval","inputs":[{"name":"owner","type":"address","indexed":true,"internalType":"address"},{"name":"spender","type":"address","indexed":true,"internalType":"address"},{"name":"amount","type":"uint256","indexed":false,"internalType":"uint256"}],"anonymous":false},{"type":"event","name":"Transfer","inputs":[{"name":"from","type":"address","indexed":true,"internalType":"address"},{"name":"to","type":"address","indexed":true,"internalType":"address"},{"name":"amount","type":"uint256","indexed":false,"internalType":"uint256"}],"anonymous":false}],"bytecode":{"object":"0x608060405234801561001057600080fd5b50610de8806100206000396000f3fe608060405234801561001057600080fd5b50600436106100cf5760003560e01c80633644e5151161008c57806395d89b411161006657806395d89b4114610387578063a9059cbb1461038f578063d505accf146103bb578063dd62ed3e1461040c576100cf565b80633644e5151461033357806370a082311461033b5780637ecebe0014610361576100cf565b806306fdde03146100d4578063095ea7b3146101515780631624f6c61461019157806318160ddd146102c557806323b872dd146102df578063313ce56714610315575b600080fd5b6100dc61043a565b6040805160208082528351818301528351919283929083019185019080838360005b838110156101165781810151838201526020016100fe565b50505050905090810190601f1680156101435780820380516001836020036101000a031916815260200191505b509250505060405180910390f35b61017d6004803603604081101561016757600080fd5b506001600160a01b0381351690602001356104c8565b604080519115158252519081900360200190f35b6102c3600480360360608110156101a757600080fd5b8101906020810181356401000000008111156101c257600080fd5b8201836020820111156101d457600080fd5b803590602001918460018302840111640100000000831117156101f657600080fd5b91908080601f016020809104026020016040519081016040528093929190818152602001838380828437600092019190915250929594936020810193503591505064010000000081111561024957600080fd5b82018360208201111561025b57600080fd5b8035906020019184600183028401116401000000008311171561027d57600080fd5b91908080601f0160208091040260200160405190810160405280939291908181526020018383808284376000920191909152509295505050903560ff16915061052e9050565b005b6102cd6105db565b60408051918252519081900360200190f35b61017d600480360360608110156102f557600080fd5b506001600160a01b038135811691602081013590911690604001356105e1565b61031d6106f1565b6040805160ff9092168252519081900360200190f35b6102cd6106fa565b6102cd6004803603602081101561035157600080fd5b50356001600160a01b0316610723565b6102cd6004803603602081101561037757600080fd5b50356001600160a01b0316610735565b6100dc610747565b61017d600480360360408110156103a557600080fd5b506001600160a01b0381351690602001356107a1565b6102c3600480360360e08110156103d157600080fd5b506001600160a01b03813581169160208101359091169060408101359060608101359060ff6080820135169060a08101359060c00135610845565b6102cd6004803603604081101561042257600080fd5b506001600160a01b0381358116916020013516610a94565b6000805460408051602060026001851615610100026000190190941693909304601f810184900484028201840190925281815292918301828280156104c05780601f10610495576101008083540402835291602001916104c0565b820191906000526020600020905b8154815290600101906020018083116104a357829003601f168201915b505050505081565b3360008181526005602090815260408083206001600160a01b038716808552908352818420869055815186815291519394909390927f8c5be1e5ebec7d5bd14f71427d1e84f3dd0314c0f7b2291e5b200ac8c7c3b925928290030190a350600192915050565b60095460ff161561057c576040805162461bcd60e51b81526020600482015260136024820152721053149150511657d253925512505312569151606a1b604482015290519081900360640190fd5b825161058f906000906020860190610c76565b5081516105a3906001906020850190610c76565b506002805460ff191660ff83161790556105bb610ab1565b6006556105c6610aca565b60075550506009805460ff1916600117905550565b60035481565b6001600160a01b0383166000908152600560209081526040808320338452909152812054600019811461063d576106188184610bb4565b6001600160a01b03861660009081526005602090815260408083203384529091529020555b6001600160a01b0385166000908152600460205260409020546106609084610bb4565b6001600160a01b03808716600090815260046020526040808220939093559086168152205461068f9084610c11565b6001600160a01b0380861660008181526004602090815260409182902094909455805187815290519193928916927fddf252ad1be2c89b69c2b068fc378daa952ba7f163c4a11628f55a4df523b3ef92918290030190a3506001949350505050565b60025460ff1681565b6000600654610707610ab1565b1461071957610714610aca565b61071d565b6007545b90505b90565b60046020526000908152604090205481565b60086020526000908152604090205481565b60018054604080516020600284861615610100026000190190941693909304601f810184900484028201840190925281815292918301828280156104c05780601f10610495576101008083540402835291602001916104c0565b336000908152600460205260408120546107bb9083610bb4565b33600090815260046020526040808220929092556001600160a01b038516815220546107e79083610c11565b6001600160a01b0384166000818152600460209081526040918290209390935580518581529051919233927fddf252ad1be2c89b69c2b068fc378daa952ba7f163c4a11628f55a4df523b3ef9281900390910190a350600192915050565b4284101561089a576040805162461bcd60e51b815260206004820152601760248201527f5045524d49545f444541444c494e455f45585049524544000000000000000000604482015290519081900360640190fd5b600060016108a66106fa565b604051806052610d0f8239604080519182900360520182206001600160a01b03808f166000818152600860209081528582208054600181019091558188019590955286860192909252918f166060860152608085018e905260a085019290925260c08085018d90528351808603909101815260e08501845280519083012061190160f01b61010086015261010285019690965261012280850196909652825180850390960186526101428401808452865196830196909620955261016283018083529490945260ff89166101828301526101a282018890526101c28201879052516101e2808301949350601f198201928290030190855afa1580156109af573d6000803e3d6000fd5b5050604051601f1901519150506001600160a01b038116158015906109e55750876001600160a01b0316816001600160a01b0316145b610a27576040805162461bcd60e51b815260206004820152600e60248201526d24a72b20a624a22fa9a4a3a722a960911b604482015290519081900360640190fd5b6001600160a01b0380821660009081526005602090815260408083208b8516808552908352928190208a905580518a8152905192938c16927f8c5be1e5ebec7d5bd14f71427d1e84f3dd0314c0f7b2291e5b200ac8c7c3b925929181900390910190a35050505050505050565b600560209081526000928352604080842090915290825290205481565b6000610c7280610ac363ffffffff8216565b9250505090565b60006040518080610d61605291396052019050604051809103902060006040518082805460018160011615610100020316600290048015610b425780601f10610b20576101008083540402835291820191610b42565b820191906000526020600020905b815481529060010190602001808311610b2e575b505060408051918290038220603160f81b83529051918290036001019091209092509050610b6e610ab1565b6040805160208082019690965280820194909452606084019290925260808301523060a0808401919091528151808403909101815260c090920190528051910120905090565b600081831015610c0b576040805162461bcd60e51b815260206004820152601c60248201527f45524332303a207375627472616374696f6e20756e646572666c6f7700000000604482015290519081900360640190fd5b50900390565b600082820183811015610c6b576040805162461bcd60e51b815260206004820152601860248201527f45524332303a206164646974696f6e206f766572666c6f770000000000000000604482015290519081900360640190fd5b9392505050565b4690565b828054600181600116156101000203166002900490600052602060002090601f016020900481019282601f10610cb757805160ff1916838001178555610ce4565b82800160010185558215610ce4579182015b82811115610ce4578251825591602001919060010190610cc9565b50610cf0929150610cf4565b5090565b61072091905b80821115610cf05760008155600101610cfa56fe5065726d69742861646472657373206f776e65722c61646472657373207370656e6465722c75696e743235362076616c75652c75696e74323536206e6f6e63652c75696e7432353620646561646c696e6529454950373132446f6d61696e28737472696e67206e616d652c737472696e672076657273696f6e2c75696e7432353620636861696e49642c6164647265737320766572696679696e67436f6e747261637429a2646970667358221220673b848f71dcd7e2e22c0a5d0916eb4fc8699e14396e21795fa3b9debbde7d0f64736f6c63430006060033","linkReferences":{}},"methodIdentifiers":{"DOMAIN_SEPARATOR()":"3644e515","allowance(address,address)":"dd62ed3e","approve(address,uint256)":"095ea7b3","balanceOf(address)":"70a08231","decimals()":"313ce567","initialize(string,string,uint8)":"1624f6c6","name()":"06fdde03","nonces(address)":"7ecebe00","permit(address,address,uint256,uint256,uint8,bytes32,bytes32)":"d505accf","symbol()":"95d89b41","totalSupply()":"18160ddd","transfer(address,uint256)":"a9059cbb","transferFrom(address,address,uint256)":"23b872dd"},"id":24}