{"abi":[{"type":"constructor","inputs":[],"stateMutability":"nonpayable"},{"type":"receive","stateMutability":"payable"},{"type":"function","name":"FEE_MAX","inputs":[],"outputs":[{"name":"","type":"uint256","internalType":"uint256"}],"stateMutability":"view"},{"type":"function","name":"MAX_BIPS","inputs":[],"outputs":[{"name":"","type":"uint256","internalType":"uint256"}],"stateMutability":"view"},{"type":"function","name":"ProphetBuy","inputs":[{"name":"amountOutMin","type":"uint256","internalType":"uint256"},{"name":"tokenAddress","type":"address","internalType":"address"},{"name":"to","type":"address","internalType":"address"},{"name":"deadline","type":"uint256","internalType":"uint256"},{"name":"fee","type":"uint256","internalType":"uint256"}],"outputs":[],"stateMutability":"payable"},{"type":"function","name":"ProphetMaxBuy","inputs":[{"name":"amountOutMin","type":"uint256","internalType":"uint256"},{"name":"tokenAddress","type":"address","internalType":"address"},{"name":"to","type":"address","internalType":"address"},{"name":"deadline","type":"uint256","internalType":"uint256"},{"name":"fee","type":"uint256","internalType":"uint256"}],"outputs":[],"stateMutability":"payable"},{"type":"function","name":"ProphetSell","inputs":[{"name":"amountIn","type":"uint256","internalType":"uint256"},{"name":"amountOutMin","type":"uint256","internalType":"uint256"},{"name":"tokenAddress","type":"address","internalType":"address"},{"name":"deadline","type":"uint256","internalType":"uint256"},{"name":"fee","type":"uint256","internalType":"uint256"}],"outputs":[],"stateMutability":"nonpayable"},{"type":"function","name":"ProphetSmartSell","inputs":[{"name":"amountOut","type":"uint256","internalType":"uint256"},{"name":"amountInMax","type":"uint256","internalType":"uint256"},{"name":"tokenAddress","type":"address","internalType":"address"},{"name":"deadline","type":"uint256","internalType":"uint256"},{"name":"fee","type":"uint256","internalType":"uint256"}],"outputs":[],"stateMutability":"nonpayable"},{"type":"function","name":"WETH","inputs":[],"outputs":[{"name":"","type":"address","internalType":"address"}],"stateMutability":"view"},{"type":"function","name":"acceptOwnership","inputs":[],"outputs":[],"stateMutability":"nonpayable"},{"type":"function","name":"factory","inputs":[],"outputs":[{"name":"","type":"address","internalType":"address"}],"stateMutability":"view"},{"type":"function","name":"getAmountIn","inputs":[{"name":"amountOut","type":"uint256","internalType":"uint256"},{"name":"reserveIn","type":"uint256","internalType":"uint256"},{"name":"reserveOut","type":"uint256","internalType":"uint256"}],"outputs":[{"name":"amountIn","type":"uint256","internalType":"uint256"}],"stateMutability":"pure"},{"type":"function","name":"getAmountOut","inputs":[{"name":"amountIn","type":"uint256","internalType":"uint256"},{"name":"reserveIn","type":"uint256","internalType":"uint256"},{"name":"reserveOut","type":"uint256","internalType":"uint256"}],"outputs":[{"name":"amountOut","type":"uint256","internalType":"uint256"}],"stateMutability":"pure"},{"type":"function","name":"getAmountsIn","inputs":[{"name":"amountOut","type":"uint256","internalType":"uint256"},{"name":"path","type":"address[]","internalType":"address[]"}],"outputs":[{"name":"amounts","type":"uint256[]","internalType":"uint256[]"}],"stateMutability":"view"},{"type":"function","name":"getAmountsOut","inputs":[{"name":"amountIn","type":"uint256","internalType":"uint256"},{"name":"path","type":"address[]","internalType":"address[]"}],"outputs":[{"name":"amounts","type":"uint256[]","internalType":"uint256[]"}],"stateMutability":"view"},{"type":"function","name":"getContractBalance","inputs":[],"outputs":[{"name":"","type":"uint256","internalType":"uint256"}],"stateMutability":"view"},{"type":"function","name":"getPathForTokenToToken","inputs":[{"name":"swapETH","type":"bool","internalType":"bool"},{"name":"tokenAddr","type":"address","internalType":"address"}],"outputs":[{"name":"","type":"address[]","internalType":"address[]"}],"stateMutability":"pure"},{"type":"function","name":"maxBuyEtherLimit","inputs":[],"outputs":[{"name":"","type":"uint256","internalType":"uint256"}],"stateMutability":"view"},{"type":"function","name":"maxBuyScale","inputs":[],"outputs":[{"name":"","type":"uint256","internalType":"uint256"}],"stateMutability":"view"},{"type":"function","name":"maxRetry","inputs":[],"outputs":[{"name":"","type":"uint256","internalType":"uint256"}],"stateMutability":"view"},{"type":"function","name":"owner","inputs":[],"outputs":[{"name":"","type":"address","internalType":"address"}],"stateMutability":"view"},{"type":"function","name":"pendingOwner","inputs":[],"outputs":[{"name":"","type":"address","internalType":"address"}],"stateMutability":"view"},{"type":"function","name":"quote","inputs":[{"name":"amountA","type":"uint256","internalType":"uint256"},{"name":"reserveA","type":"uint256","internalType":"uint256"},{"name":"reserveB","type":"uint256","internalType":"uint256"}],"outputs":[{"name":"amountB","type":"uint256","internalType":"uint256"}],"stateMutability":"pure"},{"type":"function","name":"setMaxBuyEtherLimit","inputs":[{"name":"newLimit","type":"uint256","internalType":"uint256"}],"outputs":[],"stateMutability":"nonpayable"},{"type":"function","name":"setTokenToEther","inputs":[{"name":"token","type":"address","internalType":"address"},{"name":"value","type":"uint256","internalType":"uint256"}],"outputs":[],"stateMutability":"nonpayable"},{"type":"function","name":"tokenToEther","inputs":[{"name":"","type":"address","internalType":"address"}],"outputs":[{"name":"","type":"uint256","internalType":"uint256"}],"stateMutability":"view"},{"type":"function","name":"transferOwnership","inputs":[{"name":"newOwner","type":"address","internalType":"address"}],"outputs":[],"stateMutability":"nonpayable"},{"type":"function","name":"updateMaxBuyScale","inputs":[{"name":"newMaxBuyScale","type":"uint256","internalType":"uint256"}],"outputs":[],"stateMutability":"nonpayable"},{"type":"function","name":"updateMaxRetry","inputs":[{"name":"newMaxRetry","type":"uint256","internalType":"uint256"}],"outputs":[],"stateMutability":"nonpayable"},{"type":"function","name":"withdraw","inputs":[{"name":"_token","type":"address","internalType":"address"}],"outputs":[],"stateMutability":"nonpayable"},{"type":"function","name":"withdrawETH","inputs":[],"outputs":[],"stateMutability":"nonpayable"},{"type":"event","name":"MaxBuyEtherLimitUpdated","inputs":[{"name":"newMaxBuyEtherLimit","type":"uint256","indexed":false,"internalType":"uint256"},{"name":"updatedBy","type":"address","indexed":true,"internalType":"address"}],"anonymous":false},{"type":"event","name":"MaxBuyScaleUpdated","inputs":[{"name":"newMaxBuyScale","type":"uint256","indexed":false,"internalType":"uint256"},{"name":"updatedBy","type":"address","indexed":true,"internalType":"address"}],"anonymous":false},{"type":"event","name":"MaxRetryUpdated","inputs":[{"name":"newMaxRetry","type":"uint256","indexed":false,"internalType":"uint256"},{"name":"updatedBy","type":"address","indexed":true,"internalType":"address"}],"anonymous":false},{"type":"event","name":"OwnershipChanged","inputs":[{"name":"newOwner","type":"address","indexed":true,"internalType":"address"}],"anonymous":false},{"type":"event","name":"OwnershipTransferStarted","inputs":[{"name":"Owner","type":"address","indexed":true,"internalType":"address"},{"name":"newOwner","type":"address","indexed":true,"internalType":"address"}],"anonymous":false},{"type":"event","name":"ProphetFee","inputs":[{"name":"feeAmount","type":"uint256","indexed":false,"internalType":"uint256"},{"name":"user","type":"address","indexed":true,"internalType":"address"}],"anonymous":false},{"type":"event","name":"ProphetFeeUpdated","inputs":[{"name":"newfee","type":"uint256","indexed":false,"internalType":"uint256"},{"name":"updatedBy","type":"address","indexed":true,"internalType":"address"}],"anonymous":false},{"type":"event","name":"tokenToEtherChanged","inputs":[{"name":"token","type":"address","indexed":true,"internalType":"address"},{"name":"value","type":"uint256","indexed":true,"internalType":"uint256"}],"anonymous":false}],"bytecode":{"object":"0x6080604052600a600355611af46004556706f05b59d3b2000060055534801561002757600080fd5b50600080546001600160a01b03191633179055612f2c806100496000396000f3fe6080604052600436106101c65760003560e01c8063938c3739116100f7578063c45a015511610095578063e30c397811610064578063e30c397814610786578063e7bc71501461079b578063ef619561146107d6578063f2fde38b146107eb576101ea565b8063c45a01551461065a578063d06ca61f1461066f578063d326f75c14610726578063e086e5ec14610771576101ea565b8063ad5c4648116100d1578063ad5c4648146105e5578063ad615dec146105fa578063b3249e9e14610630578063c2624e1e14610645576101ea565b8063938c37391461054c578063982c2fa31461058e578063a4eb466f146105d0576101ea565b80636aae593e1161016457806379ba50971161013e57806379ba50971461048557806382f27a1e1461049a57806385f8c259146104e55780638da5cb5b1461051b576101ea565b80636aae593e146104135780636f9fb98a14610446578063727cadc31461045b576101ea565b80633deb4c23116101a05780633deb4c231461037757806351cff8d9146103a1578063549e92ed146103d45780635883aec2146103fe576101ea565b8063031521b7146101ef578063054d50d4146102285780631f00ca7414610270576101ea565b366101ea573373c02aaa39b223fe8d0a0e5c4f27ead9083c756cc2146101e857fe5b005b600080fd5b3480156101fb57600080fd5b506101e86004803603604081101561021257600080fd5b506001600160a01b03813516906020013561081e565b34801561023457600080fd5b5061025e6004803603606081101561024b57600080fd5b5080359060208101359060400135610907565b60408051918252519081900360200190f35b34801561027c57600080fd5b506103276004803603604081101561029357600080fd5b813591908101906040810160208201356401000000008111156102b557600080fd5b8201836020820111156102c757600080fd5b803590602001918460208302840111640100000000831117156102e957600080fd5b91908080602002602001604051908101604052809392919081815260200183836020028082843760009201919091525092955061091c945050505050565b60408051602080825283518183015283519192839290830191858101910280838360005b8381101561036357818101518382015260200161034b565b505050509050019250505060405180910390f35b34801561038357600080fd5b506101e86004803603602081101561039a57600080fd5b5035610946565b3480156103ad57600080fd5b506101e8600480360360208110156103c457600080fd5b50356001600160a01b03166109d1565b3480156103e057600080fd5b506101e8600480360360208110156103f757600080fd5b5035610aa7565b34801561040a57600080fd5b5061025e610b32565b34801561041f57600080fd5b5061025e6004803603602081101561043657600080fd5b50356001600160a01b0316610b38565b34801561045257600080fd5b5061025e610b4a565b34801561046757600080fd5b506101e86004803603602081101561047e57600080fd5b5035610b4e565b34801561049157600080fd5b506101e8610bd9565b3480156104a657600080fd5b506101e8600480360360a08110156104bd57600080fd5b508035906020810135906001600160a01b036040820135169060608101359060800135610c78565b3480156104f157600080fd5b5061025e6004803603606081101561050857600080fd5b5080359060208101359060400135610e3a565b34801561052757600080fd5b50610530610e47565b604080516001600160a01b039092168252519081900360200190f35b6101e8600480360360a081101561056257600080fd5b508035906001600160a01b03602082013581169160408101359091169060608101359060800135610e56565b6101e8600480360360a08110156105a457600080fd5b508035906001600160a01b03602082013581169160408101359091169060608101359060800135611224565b3480156105dc57600080fd5b5061025e611570565b3480156105f157600080fd5b50610530611576565b34801561060657600080fd5b5061025e6004803603606081101561061d57600080fd5b508035906020810135906040013561158e565b34801561063c57600080fd5b5061025e61159b565b34801561065157600080fd5b5061025e6115a1565b34801561066657600080fd5b506105306115a7565b34801561067b57600080fd5b506103276004803603604081101561069257600080fd5b813591908101906040810160208201356401000000008111156106b457600080fd5b8201836020820111156106c657600080fd5b803590602001918460208302840111640100000000831117156106e857600080fd5b9190808060200260200160405190810160405280939291908181526020018383602002808284376000920191909152509295506115bf945050505050565b34801561073257600080fd5b506101e8600480360360a081101561074957600080fd5b508035906020810135906001600160a01b0360408201351690606081013590608001356115e0565b34801561077d57600080fd5b506101e861186c565b34801561079257600080fd5b506105306118d1565b3480156107a757600080fd5b50610327600480360360408110156107be57600080fd5b508035151590602001356001600160a01b03166118e0565b3480156107e257600080fd5b5061025e6119f6565b3480156107f757600080fd5b506101e86004803603602081101561080e57600080fd5b50356001600160a01b03166119fc565b6000546001600160a01b0316331461086b576040805162461bcd60e51b81526020600482015260186024820152600080516020612e7f833981519152604482015290519081900360640190fd5b600081116108c0576040805162461bcd60e51b815260206004820152601960248201527f50726f70686572526f757465723a205a45524f5f56414c554500000000000000604482015290519081900360640190fd5b6001600160a01b038216600081815260026020526040808220849055518392917facaf676d034545ea82dad34fc5bf03a027dd229aebce853f54ec9fcf8d61c10c91a35050565b6000610914848484611af5565b949350505050565b606061093d735c69bee701ef814a2b6a3edd4b1652cb9cc5aa6f8484611be5565b90505b92915050565b6000546001600160a01b03163314610993576040805162461bcd60e51b81526020600482015260186024820152600080516020612e7f833981519152604482015290519081900360640190fd5b600481905560408051828152905133917f3f9e9b12d4cc990ecadbeab0a846615426192bc5957b643708652adc4ce7fa11919081900360200190a250565b6000546001600160a01b03163314610a1e576040805162461bcd60e51b81526020600482015260186024820152600080516020612e7f833981519152604482015290519081900360640190fd5b600054604080516370a0823160e01b81523060048201529051610aa49284926001600160a01b0391821692918416916370a0823191602480820192602092909190829003018186803b158015610a7357600080fd5b505afa158015610a87573d6000803e3d6000fd5b505050506040513d6020811015610a9d57600080fd5b5051611d32565b50565b6000546001600160a01b03163314610af4576040805162461bcd60e51b81526020600482015260186024820152600080516020612e7f833981519152604482015290519081900360640190fd5b600381905560408051828152905133917f67cb0f73dfe7204dd09956ab9b85c058c443e1bfc9df47036baac142a2901e8f919081900360200190a250565b60055481565b60026020526000908152604090205481565b4790565b6000546001600160a01b03163314610b9b576040805162461bcd60e51b81526020600482015260186024820152600080516020612e7f833981519152604482015290519081900360640190fd5b600581905560408051828152905133917fb786d11896d82fe56911524045cbddbcc4e1652a7537e21659ac97c439d8b8cd919081900360200190a250565b33610be26118d1565b6001600160a01b031614610c275760405162461bcd60e51b8152600401808060200182810382526022815260200180612e0f6022913960400191505060405180910390fd5b610c2f6118d1565b600080546001600160a01b0319166001600160a01b03928316178082556040519216917f595ee9ffef04d4d652b768860c56905a48f5ab79124bb3b2279df1885536991d9190a2565b6103e8811115610cb95760405162461bcd60e51b8152600401808060200182810382526021815260200180612cc86021913960400191505060405180910390fd5b612710818602046060610ccd6000866118e0565b905073c02aaa39b223fe8d0a0e5c4f27ead9083c756cc26001600160a01b031681600183510381518110610cfd57fe5b60200260200101516001600160a01b031614610d60576040805162461bcd60e51b815260206004820152601b60248201527f50726f70686572526f757465723a20494e56414c49445f504154480000000000604482015290519081900360640190fd5b6060610d83735c69bee701ef814a2b6a3edd4b1652cb9cc5aa6f848a0184611be5565b90508681600081518110610d9357fe5b60200260200101511115610dd85760405162461bcd60e51b8152600401808060200182810382526025815260200180612dc26025913960400191505060405180910390fd5b610dfa81600081518110610de857fe5b60200260200101518984338988611e86565b60408051848152905133917f237dc3cc59ed2345121b102ace6c6ee25b05e01c8a5e61fa09aac27ed833ad9c919081900360200190a25050505050505050565b6000610914848484612145565b6000546001600160a01b031681565b8142811015610ea5576040805162461bcd60e51b8152602060048201526016602482015275141c9bdc1a195c949bdd5d195c8e881156141254915160521b604482015290519081900360640190fd5b6060610eb26001876118e0565b90506103e8831115610ef55760405162461bcd60e51b8152600401808060200182810382526021815260200180612cc86021913960400191505060405180910390fd5b60006127103485020490506000610f0c3483612235565b905073c02aaa39b223fe8d0a0e5c4f27ead9083c756cc26001600160a01b031663d0e30db0826040518263ffffffff1660e01b81526004016000604051808303818588803b158015610f5d57600080fd5b505af1158015610f71573d6000803e3d6000fd5b505050505073c02aaa39b223fe8d0a0e5c4f27ead9083c756cc26001600160a01b031663a9059cbb610fe0735c69bee701ef814a2b6a3edd4b1652cb9cc5aa6f86600081518110610fbe57fe5b602002602001015187600181518110610fd357fe5b6020026020010151612285565b836040518363ffffffff1660e01b815260040180836001600160a01b03166001600160a01b0316815260200182815260200192505050602060405180830381600087803b15801561103057600080fd5b505af1158015611044573d6000803e3d6000fd5b505050506040513d602081101561105a57600080fd5b505161106257fe5b6000886001600160a01b03166370a08231896040518263ffffffff1660e01b815260040180826001600160a01b03166001600160a01b0316815260200191505060206040518083038186803b1580156110ba57600080fd5b505afa1580156110ce573d6000803e3d6000fd5b505050506040513d60208110156110e457600080fd5b505190506110f28489612345565b8961119c828660018851038151811061110757fe5b60200260200101516001600160a01b03166370a082318c6040518263ffffffff1660e01b815260040180826001600160a01b03166001600160a01b0316815260200191505060206040518083038186803b15801561116457600080fd5b505afa158015611178573d6000803e3d6000fd5b505050506040513d602081101561118e57600080fd5b50519063ffffffff61223516565b10156111d95760405162461bcd60e51b8152600401808060200182810382526029815260200180612e316029913960400191505060405180910390fd5b6040805184815290516001600160a01b038a16917f237dc3cc59ed2345121b102ace6c6ee25b05e01c8a5e61fa09aac27ed833ad9c919081900360200190a250505050505050505050565b8142811015611273576040805162461bcd60e51b8152602060048201526016602482015275141c9bdc1a195c949bdd5d195c8e881156141254915160521b604482015290519081900360640190fd5b6005543411156112b45760405162461bcd60e51b8152600401808060200182810382526023815260200180612ce96023913960400191505060405180910390fd5b6103e88211156112f55760405162461bcd60e51b8152600401808060200182810382526021815260200180612cc86021913960400191505060405180910390fd5b6001600160a01b038516600090815260026020526040812054349190611423576003545b8161141d57806113325761132d873461263d565b61141d565b6040805163938c373960e01b8152600481018b90526001600160a01b038a811660248301528916604482015260648101889052608481018790529051309163938c373991869160a48082019260009290919082900301818588803b15801561139957600080fd5b505af1935050505080156113ab575060015b6113d8576127106004548402816113be57fe5b0492506127106004548a02816113d057fe5b049850611319565b6001600160a01b0388166000908152600260205260408120849055600192506114013485612235565b9050801561141357611413888261263d565b5060001901611319565b50611566565b6001600160a01b038716600090815260026020526040902054348110156114dc576040805163938c373960e01b8152600481018b90526001600160a01b038a811660248301528916604482015260648101889052608481018790529051309163938c373991849160a48082019260009290919082900301818588803b1580156114ab57600080fd5b505af11580156114bf573d6000803e3d6000fd5b50505050506114d7876114d23484612235565b61263d565b611564565b803411611564576040805163938c373960e01b8152600481018b90526001600160a01b038a811660248301528916604482015260648101889052608481018790529051309163938c373991349160a48082019260009290919082900301818588803b15801561154a57600080fd5b505af115801561155e573d6000803e3d6000fd5b50505050505b505b5050505050505050565b60035481565b73c02aaa39b223fe8d0a0e5c4f27ead9083c756cc281565b6000610914848484612730565b61271081565b6103e881565b735c69bee701ef814a2b6a3edd4b1652cb9cc5aa6f81565b606061093d735c69bee701ef814a2b6a3edd4b1652cb9cc5aa6f84846127dc565b814281101561162f576040805162461bcd60e51b8152602060048201526016602482015275141c9bdc1a195c949bdd5d195c8e881156141254915160521b604482015290519081900360640190fd5b606061163c6000866118e0565b90506116978160008151811061164e57fe5b602002602001015133611691735c69bee701ef814a2b6a3edd4b1652cb9cc5aa6f8560008151811061167c57fe5b602002602001015186600181518110610fd357fe5b8a612913565b6116a18130612345565b604080516370a0823160e01b8152306004820152905160009173c02aaa39b223fe8d0a0e5c4f27ead9083c756cc2916370a0823191602480820192602092909190829003018186803b1580156116f657600080fd5b505afa15801561170a573d6000803e3d6000fd5b505050506040513d602081101561172057600080fd5b50519050868110156117635760405162461bcd60e51b8152600401808060200182810382526029815260200180612e316029913960400191505060405180910390fd5b73c02aaa39b223fe8d0a0e5c4f27ead9083c756cc26001600160a01b0316632e1a7d4d826040518263ffffffff1660e01b815260040180828152602001915050600060405180830381600087803b1580156117bd57600080fd5b505af11580156117d1573d6000803e3d6000fd5b505050506103e88411156118165760405162461bcd60e51b8152600401808060200182810382526021815260200180612cc86021913960400191505060405180910390fd5b6127108482020461182b336114d28484612235565b60408051828152905133917f237dc3cc59ed2345121b102ace6c6ee25b05e01c8a5e61fa09aac27ed833ad9c919081900360200190a2505050505050505050565b6000546001600160a01b031633146118b9576040805162461bcd60e51b81526020600482015260186024820152600080516020612e7f833981519152604482015290519081900360640190fd5b6000546118cf906001600160a01b03164761263d565b565b6001546001600160a01b031690565b604080516002808252606080830184529283929190602083019080368337019050509050831561197f5773c02aaa39b223fe8d0a0e5c4f27ead9083c756cc28160008151811061192c57fe5b60200260200101906001600160a01b031690816001600160a01b031681525050828160018151811061195a57fe5b60200260200101906001600160a01b031690816001600160a01b03168152505061093d565b828160008151811061198d57fe5b60200260200101906001600160a01b031690816001600160a01b03168152505073c02aaa39b223fe8d0a0e5c4f27ead9083c756cc2816001815181106119cf57fe5b60200260200101906001600160a01b031690816001600160a01b0316815250509392505050565b60045481565b6000546001600160a01b03163314611a49576040805162461bcd60e51b81526020600482015260186024820152600080516020612e7f833981519152604482015290519081900360640190fd5b6001600160a01b038116611aa4576040805162461bcd60e51b815260206004820152601b60248201527f50726f70686572526f757465723a205a45524f5f414444524553530000000000604482015290519081900360640190fd5b600180546001600160a01b0319166001600160a01b0383811691821790925560008054604051929316917f38d16b8cac22d99fc7c124b9cd0de2d3fa1faef420bfe791d8c362d765e227009190a350565b6000808411611b355760405162461bcd60e51b815260040180806020018281038252602b815260200180612ecc602b913960400191505060405180910390fd5b600083118015611b455750600082115b611b805760405162461bcd60e51b8152600401808060200182810382526028815260200180612de76028913960400191505060405180910390fd5b6000611b94856103e563ffffffff612a7016565b90506000611ba8828563ffffffff612a7016565b90506000611bce83611bc2886103e863ffffffff612a7016565b9063ffffffff612ad316565b9050808281611bd957fe5b04979650505050505050565b6060600282511015611c3e576040805162461bcd60e51b815260206004820152601e60248201527f556e697377617056324c6962726172793a20494e56414c49445f504154480000604482015290519081900360640190fd5b815167ffffffffffffffff81118015611c5657600080fd5b50604051908082528060200260200182016040528015611c80578160200160208202803683370190505b5090508281600183510381518110611c9457fe5b60209081029190910101528151600019015b8015611d2a57600080611ce387866001860381518110611cc257fe5b6020026020010151878681518110611cd657fe5b6020026020010151612b22565b91509150611d05848481518110611cf657fe5b60200260200101518383612145565b846001850381518110611d1457fe5b6020908102919091010152505060001901611ca6565b509392505050565b604080516001600160a01b038481166024830152604480830185905283518084039091018152606490920183526020820180516001600160e01b031663a9059cbb60e01b178152925182516000946060949389169392918291908083835b60208310611daf5780518252601f199092019160209182019101611d90565b6001836020036101000a0380198251168184511680821785525050505050509050019150506000604051808303816000865af19150503d8060008114611e11576040519150601f19603f3d011682016040523d82523d6000602084013e611e16565b606091505b5091509150818015611e44575080511580611e445750808060200190516020811015611e4157600080fd5b50515b611e7f5760405162461bcd60e51b815260040180806020018281038252602d815260200180612e9f602d913960400191505060405180910390fd5b5050505050565b8142811015611ed5576040805162461bcd60e51b8152602060048201526016602482015275141c9bdc1a195c949bdd5d195c8e881156141254915160521b604482015290519081900360640190fd5b611f2885600081518110611ee557fe5b602002602001015133611691735c69bee701ef814a2b6a3edd4b1652cb9cc5aa6f89600081518110611f1357fe5b60200260200101518a600181518110610fd357fe5b600085600187510381518110611f3a57fe5b60200260200101516001600160a01b03166370a08231306040518263ffffffff1660e01b815260040180826001600160a01b03166001600160a01b0316815260200191505060206040518083038186803b158015611f9757600080fd5b505afa158015611fab573d6000803e3d6000fd5b505050506040513d6020811015611fc157600080fd5b50519050611fcf8630612345565b600086600188510381518110611fe157fe5b60200260200101516001600160a01b03166370a08231306040518263ffffffff1660e01b815260040180826001600160a01b03166001600160a01b0316815260200191505060206040518083038186803b15801561203e57600080fd5b505afa158015612052573d6000803e3d6000fd5b505050506040513d602081101561206857600080fd5b5051905060006120788284612235565b9050888110156120b95760405162461bcd60e51b8152600401808060200182810382526029815260200180612e316029913960400191505060405180910390fd5b73c02aaa39b223fe8d0a0e5c4f27ead9083c756cc26001600160a01b0316632e1a7d4d826040518263ffffffff1660e01b815260040180828152602001915050600060405180830381600087803b15801561211357600080fd5b505af1158015612127573d6000803e3d6000fd5b50505050612139876114d28388612235565b50505050505050505050565b60008084116121855760405162461bcd60e51b815260040180806020018281038252602c815260200180612d0c602c913960400191505060405180910390fd5b6000831180156121955750600082115b6121d05760405162461bcd60e51b8152600401808060200182810382526028815260200180612de76028913960400191505060405180910390fd5b60006121f46103e86121e8868863ffffffff612a7016565b9063ffffffff612a7016565b9050600061220e6103e56121e8868963ffffffff61223516565b905061222b600182848161221e57fe5b049063ffffffff612ad316565b9695505050505050565b80820382811115610940576040805162461bcd60e51b815260206004820152601560248201527464732d6d6174682d7375622d756e646572666c6f7760581b604482015290519081900360640190fd5b60008060006122948585612be9565b604080516bffffffffffffffffffffffff19606094851b811660208084019190915293851b81166034830152825160288184030181526048830184528051908501206001600160f81b031960688401529a90941b9093166069840152607d8301989098527f96e8ac4277198ff8b6f785478aa9a39f403cb768dd02cbee326c3e7da348845f609d808401919091528851808403909101815260bd909201909752805196019590952095945050505050565b60005b60018351038110156126385760008084838151811061236357fe5b602002602001015185846001018151811061237a57fe5b60200260200101519150915060006123928383612be9565b50905060006123b6735c69bee701ef814a2b6a3edd4b1652cb9cc5aa6f8585612285565b9050600080600080846001600160a01b0316630902f1ac6040518163ffffffff1660e01b815260040160606040518083038186803b1580156123f757600080fd5b505afa15801561240b573d6000803e3d6000fd5b505050506040513d606081101561242157600080fd5b5080516020909101516001600160701b0391821693501690506000806001600160a01b038a81169089161461245757828461245a565b83835b915091506124b8828b6001600160a01b03166370a082318a6040518263ffffffff1660e01b815260040180826001600160a01b03166001600160a01b0316815260200191505060206040518083038186803b15801561116457600080fd5b95506124c5868383611af5565b945050505050600080856001600160a01b0316886001600160a01b0316146124ef578260006124f3565b6000835b91509150600060028c51038a1061250a578a612532565b612532735c69bee701ef814a2b6a3edd4b1652cb9cc5aa6f898e8d60020181518110610fd357fe5b604080516000808252602082019283905263022c0d9f60e01b835260248201878152604483018790526001600160a01b038086166064850152608060848501908152845160a48601819052969750908c169563022c0d9f958a958a958a9591949193919260c486019290918190849084905b838110156125bc5781810151838201526020016125a4565b50505050905090810190601f1680156125e95780820380516001836020036101000a031916815260200191505b5095505050505050600060405180830381600087803b15801561260b57600080fd5b505af115801561261f573d6000803e3d6000fd5b50506001909b019a506123489950505050505050505050565b505050565b604080516000808252602082019092526001600160a01b0384169083906040518082805190602001908083835b602083106126895780518252601f19909201916020918201910161266a565b6001836020036101000a03801982511681845116808217855250505050505090500191505060006040518083038185875af1925050503d80600081146126eb576040519150601f19603f3d011682016040523d82523d6000602084013e6126f0565b606091505b50509050806126385760405162461bcd60e51b8152600401808060200182810382526034815260200180612d696034913960400191505060405180910390fd5b60008084116127705760405162461bcd60e51b8152600401808060200182810382526025815260200180612e5a6025913960400191505060405180910390fd5b6000831180156127805750600082115b6127bb5760405162461bcd60e51b8152600401808060200182810382526028815260200180612de76028913960400191505060405180910390fd5b826127cc858463ffffffff612a7016565b816127d357fe5b04949350505050565b6060600282511015612835576040805162461bcd60e51b815260206004820152601e60248201527f556e697377617056324c6962726172793a20494e56414c49445f504154480000604482015290519081900360640190fd5b815167ffffffffffffffff8111801561284d57600080fd5b50604051908082528060200260200182016040528015612877578160200160208202803683370190505b509050828160008151811061288857fe5b60200260200101818152505060005b6001835103811015611d2a576000806128cd878685815181106128b657fe5b6020026020010151878660010181518110611cd657fe5b915091506128ef8484815181106128e057fe5b60200260200101518383611af5565b8484600101815181106128fe57fe5b60209081029190910101525050600101612897565b604080516001600160a01b0385811660248301528481166044830152606480830185905283518084039091018152608490920183526020820180516001600160e01b03166323b872dd60e01b17815292518251600094606094938a169392918291908083835b602083106129985780518252601f199092019160209182019101612979565b6001836020036101000a0380198251168184511680821785525050505050509050019150506000604051808303816000865af19150503d80600081146129fa576040519150601f19603f3d011682016040523d82523d6000602084013e6129ff565b606091505b5091509150818015612a2d575080511580612a2d5750808060200190516020811015612a2a57600080fd5b50515b612a685760405162461bcd60e51b8152600401808060200182810382526031815260200180612d386031913960400191505060405180910390fd5b505050505050565b6000811580612a8b57505080820282828281612a8857fe5b04145b610940576040805162461bcd60e51b815260206004820152601460248201527364732d6d6174682d6d756c2d6f766572666c6f7760601b604482015290519081900360640190fd5b80820182811015610940576040805162461bcd60e51b815260206004820152601460248201527364732d6d6174682d6164642d6f766572666c6f7760601b604482015290519081900360640190fd5b6000806000612b318585612be9565b509050600080612b42888888612285565b6001600160a01b0316630902f1ac6040518163ffffffff1660e01b815260040160606040518083038186803b158015612b7a57600080fd5b505afa158015612b8e573d6000803e3d6000fd5b505050506040513d6060811015612ba457600080fd5b5080516020909101516001600160701b0391821693501690506001600160a01b0387811690841614612bd7578082612bda565b81815b90999098509650505050505050565b600080826001600160a01b0316846001600160a01b03161415612c3d5760405162461bcd60e51b8152600401808060200182810382526025815260200180612d9d6025913960400191505060405180910390fd5b826001600160a01b0316846001600160a01b031610612c5d578284612c60565b83835b90925090506001600160a01b038216612cc0576040805162461bcd60e51b815260206004820152601e60248201527f556e697377617056324c6962726172793a205a45524f5f414444524553530000604482015290519081900360640190fd5b925092905056fe50726f70686572526f757465723a20494e56414c49445f4645455f414d4f554e5450726f70686572526f757465723a2045584345454445445f45544845525f4c494d4954556e697377617056324c6962726172793a20494e53554646494349454e545f4f55545055545f414d4f554e545472616e7366657248656c7065723a3a7472616e7366657246726f6d3a207472616e7366657246726f6d206661696c65645472616e7366657248656c7065723a3a736166655472616e736665724554483a20455448207472616e73666572206661696c6564556e697377617056324c6962726172793a204944454e544943414c5f41444452455353455350726f70686572526f757465723a204558434553534956455f494e5055545f414d4f554e54556e697377617056324c6962726172793a20494e53554646494349454e545f4c495155494449545950726f70686572526f757465723a20554e415554484f52495a45445f43414c4c455250726f70686572526f757465723a20494e53554646494349454e545f4f55545055545f414d4f554e54556e697377617056324c6962726172793a20494e53554646494349454e545f414d4f554e5450726f70686572526f757465723a204e4f54204f574e455200000000000000005472616e7366657248656c7065723a3a736166655472616e736665723a207472616e73666572206661696c6564556e697377617056324c6962726172793a20494e53554646494349454e545f494e5055545f414d4f554e54a2646970667358221220b54747a9cbd6cb8723880677929b2ddeb7a50ab0e4d461a6048ed7247c8ae27164736f6c63430006060033","linkReferences":{}},"methodIdentifiers":{"FEE_MAX()":"c2624e1e","MAX_BIPS()":"b3249e9e","ProphetBuy(uint256,address,address,uint256,uint256)":"938c3739","ProphetMaxBuy(uint256,address,address,uint256,uint256)":"982c2fa3","ProphetSell(uint256,uint256,address,uint256,uint256)":"d326f75c","ProphetSmartSell(uint256,uint256,address,uint256,uint256)":"82f27a1e","WETH()":"ad5c4648","acceptOwnership()":"79ba5097","factory()":"c45a0155","getAmountIn(uint256,uint256,uint256)":"85f8c259","getAmountOut(uint256,uint256,uint256)":"054d50d4","getAmountsIn(uint256,address[])":"1f00ca74","getAmountsOut(uint256,address[])":"d06ca61f","getContractBalance()":"6f9fb98a","getPathForTokenToToken(bool,address)":"e7bc7150","maxBuyEtherLimit()":"5883aec2","maxBuyScale()":"ef619561","maxRetry()":"a4eb466f","owner()":"8da5cb5b","pendingOwner()":"e30c3978","quote(uint256,uint256,uint256)":"ad615dec","setMaxBuyEtherLimit(uint256)":"727cadc3","setTokenToEther(address,uint256)":"031521b7","tokenToEther(address)":"6aae593e","transferOwnership(address)":"f2fde38b","updateMaxBuyScale(uint256)":"3deb4c23","updateMaxRetry(uint256)":"549e92ed","withdraw(address)":"51cff8d9","withdrawETH()":"e086e5ec"},"id":0}