{
  "abi": [
    {
      "anonymous": false,
      "inputs": [
        {
          "indexed": true,
          "internalType": "address",
          "name": "owner",
          "type": "address"
        },
        {
          "indexed": true,
          "internalType": "address",
          "name": "spender",
          "type": "address"
        },
        {
          "indexed": true,
          "internalType": "uint256",
          "name": "id",
          "type": "uint256"
        }
      ],
      "name": "Approval",
      "type": "event"
    },
    {
      "anonymous": false,
      "inputs": [
        {
          "indexed": true,
          "internalType": "address",
          "name": "owner",
          "type": "address"
        },
        {
          "indexed": true,
          "internalType": "address",
          "name": "operator",
          "type": "address"
        },
        {
          "indexed": false,
          "internalType": "bool",
          "name": "approved",
          "type": "bool"
        }
      ],
      "name": "ApprovalForAll",
      "type": "event"
    },
    {
      "anonymous": false,
      "inputs": [
        {
          "indexed": true,
          "internalType": "address",
          "name": "from",
          "type": "address"
        },
        {
          "indexed": true,
          "internalType": "address",
          "name": "to",
          "type": "address"
        },
        {
          "indexed": true,
          "internalType": "uint256",
          "name": "id",
          "type": "uint256"
        }
      ],
      "name": "Transfer",
      "type": "event"
    },
    {
      "inputs": [
        {
          "internalType": "address",
          "name": "spender",
          "type": "address"
        },
        {
          "internalType": "uint256",
          "name": "id",
          "type": "uint256"
        }
      ],
      "name": "approve",
      "outputs": [],
      "stateMutability": "nonpayable",
      "type": "function"
    },
    {
      "inputs": [
        {
          "internalType": "address",
          "name": "owner",
          "type": "address"
        }
      ],
      "name": "balanceOf",
      "outputs": [
        {
          "internalType": "uint256",
          "name": "",
          "type": "uint256"
        }
      ],
      "stateMutability": "view",
      "type": "function"
    },
    {
      "inputs": [
        {
          "internalType": "uint256",
          "name": "",
          "type": "uint256"
        }
      ],
      "name": "getApproved",
      "outputs": [
        {
          "internalType": "address",
          "name": "",
          "type": "address"
        }
      ],
      "stateMutability": "view",
      "type": "function"
    },
    {
      "inputs": [
        {
          "internalType": "string",
          "name": "_name",
          "type": "string"
        },
        {
          "internalType": "string",
          "name": "_symbol",
          "type": "string"
        }
      ],
      "name": "initialize",
      "outputs": [],
      "stateMutability": "nonpayable",
      "type": "function"
    },
    {
      "inputs": [
        {
          "internalType": "address",
          "name": "",
          "type": "address"
        },
        {
          "internalType": "address",
          "name": "",
          "type": "address"
        }
      ],
      "name": "isApprovedForAll",
      "outputs": [
        {
          "internalType": "bool",
          "name": "",
          "type": "bool"
        }
      ],
      "stateMutability": "view",
      "type": "function"
    },
    {
      "inputs": [],
      "name": "name",
      "outputs": [
        {
          "internalType": "string",
          "name": "",
          "type": "string"
        }
      ],
      "stateMutability": "view",
      "type": "function"
    },
    {
      "inputs": [
        {
          "internalType": "uint256",
          "name": "id",
          "type": "uint256"
        }
      ],
      "name": "ownerOf",
      "outputs": [
        {
          "internalType": "address",
          "name": "owner",
          "type": "address"
        }
      ],
      "stateMutability": "view",
      "type": "function"
    },
    {
      "inputs": [
        {
          "internalType": "address",
          "name": "from",
          "type": "address"
        },
        {
          "internalType": "address",
          "name": "to",
          "type": "address"
        },
        {
          "internalType": "uint256",
          "name": "id",
          "type": "uint256"
        }
      ],
      "name": "safeTransferFrom",
      "outputs": [],
      "stateMutability": "nonpayable",
      "type": "function"
    },
    {
      "inputs": [
        {
          "internalType": "address",
          "name": "from",
          "type": "address"
        },
        {
          "internalType": "address",
          "name": "to",
          "type": "address"
        },
        {
          "internalType": "uint256",
          "name": "id",
          "type": "uint256"
        },
        {
          "internalType": "bytes",
          "name": "data",
          "type": "bytes"
        }
      ],
      "name": "safeTransferFrom",
      "outputs": [],
      "stateMutability": "nonpayable",
      "type": "function"
    },
    {
      "inputs": [
        {
          "internalType": "address",
          "name": "operator",
          "type": "address"
        },
        {
          "internalType": "bool",
          "name": "approved",
          "type": "bool"
        }
      ],
      "name": "setApprovalForAll",
      "outputs": [],
      "stateMutability": "nonpayable",
      "type": "function"
    },
    {
      "inputs": [
        {
          "internalType": "bytes4",
          "name": "interfaceId",
          "type": "bytes4"
        }
      ],
      "name": "supportsInterface",
      "outputs": [
        {
          "internalType": "bool",
          "name": "",
          "type": "bool"
        }
      ],
      "stateMutability": "pure",
      "type": "function"
    },
    {
      "inputs": [],
      "name": "symbol",
      "outputs": [
        {
          "internalType": "string",
          "name": "",
          "type": "string"
        }
      ],
      "stateMutability": "view",
      "type": "function"
    },
    {
      "inputs": [
        {
          "internalType": "uint256",
          "name": "id",
          "type": "uint256"
        }
      ],
      "name": "tokenURI",
      "outputs": [
        {
          "internalType": "string",
          "name": "",
          "type": "string"
        }
      ],
      "stateMutability": "view",
      "type": "function"
    },
    {
      "inputs": [
        {
          "internalType": "address",
          "name": "from",
          "type": "address"
        },
        {
          "internalType": "address",
          "name": "to",
          "type": "address"
        },
        {
          "internalType": "uint256",
          "name": "id",
          "type": "uint256"
        }
      ],
      "name": "transferFrom",
      "outputs": [],
      "stateMutability": "nonpayable",
      "type": "function"
    }
  ],
  "bytecode": {
    "object": "0x608060405234801561001057600080fd5b50610e76806100206000396000f3fe608060405234801561001057600080fd5b50600436106100ea5760003560e01c80636352211e1161008c578063a22cb46511610066578063a22cb46514610404578063b88d4fde14610432578063c87b56dd146104f8578063e985e9c514610515576100ea565b80636352211e146103a757806370a08231146103c457806395d89b41146103fc576100ea565b8063095ea7b3116100c8578063095ea7b3146101e057806323b872dd1461020e57806342842e0e146102445780634cd88b761461027a576100ea565b806301ffc9a7146100ef57806306fdde031461012a578063081812fc146101a7575b600080fd5b6101166004803603602081101561010557600080fd5b50356001600160e01b031916610543565b604080519115158252519081900360200190f35b610132610597565b6040805160208082528351818301528351919283929083019185019080838360005b8381101561016c578181015183820152602001610154565b50505050905090810190601f1680156101995780820380516001836020036101000a031916815260200191505b509250505060405180910390f35b6101c4600480360360208110156101bd57600080fd5b5035610625565b604080516001600160a01b039092168252519081900360200190f35b61020c600480360360408110156101f657600080fd5b506001600160a01b038135169060200135610640565b005b61020c6004803603606081101561022457600080fd5b506001600160a01b03813581169160208101359091169060400135610727565b61020c6004803603606081101561025a57600080fd5b506001600160a01b038135811691602081013590911690604001356108fd565b61020c6004803603604081101561029057600080fd5b8101906020810181356401000000008111156102ab57600080fd5b8201836020820111156102bd57600080fd5b803590602001918460018302840111640100000000831117156102df57600080fd5b91908080601f016020809104026020016040519081016040528093929190818152602001838380828437600092019190915250929594936020810193503591505064010000000081111561033257600080fd5b82018360208201111561034457600080fd5b8035906020019184600183028401116401000000008311171561036657600080fd5b91908080601f016020809104026020016040519081016040528093929190818152602001838380828437600092019190915250929550610a04945050505050565b6101c4600480360360208110156103bd57600080fd5b5035610a8b565b6103ea600480360360208110156103da57600080fd5b50356001600160a01b0316610ae2565b60408051918252519081900360200190f35b610132610b4a565b61020c6004803603604081101561041a57600080fd5b506001600160a01b0381351690602001351515610ba4565b61020c6004803603608081101561044857600080fd5b6001600160a01b0382358116926020810135909116916040820135919081019060808101606082013564010000000081111561048357600080fd5b82018360208201111561049557600080fd5b803590602001918460018302840111640100000000831117156104b757600080fd5b91908080601f016020809104026020016040519081016040528093929190818152602001838380828437600092019190915250929550610c12945050505050565b6101326004803603602081101561050e57600080fd5b5035610d79565b6101166004803603604081101561052b57600080fd5b506001600160a01b0381358116916020013516610d7f565b60006301ffc9a760e01b6001600160e01b03198316148061057457506380ac58cd60e01b6001600160e01b03198316145b8061058f5750635b5e139f60e01b6001600160e01b03198316145b90505b919050565b6000805460408051602060026001851615610100026000190190941693909304601f8101849004840282018401909252818152929183018282801561061d5780601f106105f25761010080835404028352916020019161061d565b820191906000526020600020905b81548152906001019060200180831161060057829003601f168201915b505050505081565b6004602052600090815260409020546001600160a01b031681565b6000818152600260205260409020546001600160a01b03163381148061068957506001600160a01b038116600090815260056020908152604080832033845290915290205460ff165b6106cb576040805162461bcd60e51b815260206004820152600e60248201526d1393d517d055551213d49256915160921b604482015290519081900360640190fd5b60008281526004602052604080822080546001600160a01b0319166001600160a01b0387811691821790925591518593918516917f8c5be1e5ebec7d5bd14f71427d1e84f3dd0314c0f7b2291e5b200ac8c7c3b92591a4505050565b6000818152600260205260409020546001600160a01b03848116911614610782576040805162461bcd60e51b815260206004820152600a60248201526957524f4e475f46524f4d60b01b604482015290519081900360640190fd5b6001600160a01b0382166107d1576040805162461bcd60e51b81526020600482015260116024820152701253959053125117d49150d25412515395607a1b604482015290519081900360640190fd5b336001600160a01b038416148061080b57506001600160a01b038316600090815260056020908152604080832033845290915290205460ff165b8061082c57506000818152600460205260409020546001600160a01b031633145b61086e576040805162461bcd60e51b815260206004820152600e60248201526d1393d517d055551213d49256915160921b604482015290519081900360640190fd5b6001600160a01b0380841660008181526003602090815260408083208054600019019055938616808352848320805460010190558583526002825284832080546001600160a01b03199081168317909155600490925284832080549092169091559251849392917fddf252ad1be2c89b69c2b068fc378daa952ba7f163c4a11628f55a4df523b3ef91a4505050565b610908838383610727565b61091182610d9f565b15806109bb575060408051630a85bd0160e11b8082523360048301526001600160a01b0386811660248401526044830185905260806064840152600060848401819052935191939086169263150b7a029260c48083019360209383900390910190829087803b15801561098357600080fd5b505af1158015610997573d6000803e3d6000fd5b505050506040513d60208110156109ad57600080fd5b50516001600160e01b031916145b6109ff576040805162461bcd60e51b815260206004820152601060248201526f155394d0519157d49150d2541251539560821b604482015290519081900360640190fd5b505050565b60065460ff1615610a52576040805162461bcd60e51b81526020600482015260136024820152721053149150511657d253925512505312569151606a1b604482015290519081900360640190fd5b8151610a65906000906020850190610da5565b508051610a79906001906020840190610da5565b50506006805460ff1916600117905550565b6000818152600260205260409020546001600160a01b031680610592576040805162461bcd60e51b815260206004820152600a6024820152691393d517d3525395115160b21b604482015290519081900360640190fd5b60006001600160a01b038216610b2e576040805162461bcd60e51b815260206004820152600c60248201526b5a45524f5f4144445245535360a01b604482015290519081900360640190fd5b506001600160a01b031660009081526003602052604090205490565b60018054604080516020600284861615610100026000190190941693909304601f8101849004840282018401909252818152929183018282801561061d5780601f106105f25761010080835404028352916020019161061d565b3360008181526005602090815260408083206001600160a01b03871680855290835292819020805460ff1916861515908117909155815190815290519293927f17307eab39ab6107e8899845ad3d59bd9653f200f220920489ca2b5937696c31929181900390910190a35050565b610c1d848484610727565b610c2683610d9f565b1580610d2f5750604051630a85bd0160e11b80825233600483018181526001600160a01b0388811660248601526044850187905260806064860190815286516084870152865194959189169463150b7a0294938b938a938a93909160a40190602085019080838360005b83811015610ca8578181015183820152602001610c90565b50505050905090810190601f168015610cd55780820380516001836020036101000a031916815260200191505b5095505050505050602060405180830381600087803b158015610cf757600080fd5b505af1158015610d0b573d6000803e3d6000fd5b505050506040513d6020811015610d2157600080fd5b50516001600160e01b031916145b610d73576040805162461bcd60e51b815260206004820152601060248201526f155394d0519157d49150d2541251539560821b604482015290519081900360640190fd5b50505050565b50606090565b600560209081526000928352604080842090915290825290205460ff1681565b3b151590565b828054600181600116156101000203166002900490600052602060002090601f016020900481019282601f10610de657805160ff1916838001178555610e13565b82800160010185558215610e13579182015b82811115610e13578251825591602001919060010190610df8565b50610e1f929150610e23565b5090565b610e3d91905b80821115610e1f5760008155600101610e29565b9056fea26469706673582212200a905961e9deb773860f96ae91058f1e2b5cecb945204d1be0a9a18b265df14964736f6c63430006060033",
    "linkReferences": {}
  },
  "methodIdentifiers": {
    "approve(address,uint256)": "095ea7b3",
    "balanceOf(address)": "70a08231",
    "getApproved(uint256)": "081812fc",
    "initialize(string,string)": "4cd88b76",
    "isApprovedForAll(address,address)": "e985e9c5",
    "name()": "06fdde03",
    "ownerOf(uint256)": "6352211e",
    "safeTransferFrom(address,address,uint256)": "42842e0e",
    "safeTransferFrom(address,address,uint256,bytes)": "b88d4fde",
    "setApprovalForAll(address,bool)": "a22cb465",
    "supportsInterface(bytes4)": "01ffc9a7",
    "symbol()": "95d89b41",
    "tokenURI(uint256)": "c87b56dd",
    "transferFrom(address,address,uint256)": "23b872dd"
  },
  "id": 25
}